{"abi":[{"type":"function","name":"customFees","inputs":[{"name":"","type":"address","internalType":"address"}],"outputs":[{"name":"channelTreasury","type":"address","internalType":"address"},{"name":"uplinkFee","type":"uint256","internalType":"uint256"},{"name":"channelFee","type":"uint256","internalType":"uint256"},{"name":"creatorFee","type":"uint256","internalType":"uint256"},{"name":"mintReferralFee","type":"uint256","internalType":"uint256"},{"name":"firstMinterFee","type":"uint256","internalType":"uint256"}],"stateMutability":"view"},{"type":"function","name":"getChannelFeeConfig","inputs":[{"name":"channel","type":"address","internalType":"address"}],"outputs":[{"name":"","type":"tuple","internalType":"struct IFees.FeeConfig","components":[{"name":"channelTreasury","type":"address","internalType":"address"},{"name":"uplinkFee","type":"uint256","internalType":"uint256"},{"name":"channelFee","type":"uint256","internalType":"uint256"},{"name":"creatorFee","type":"uint256","internalType":"uint256"},{"name":"mintReferralFee","type":"uint256","internalType":"uint256"},{"name":"firstMinterFee","type":"uint256","internalType":"uint256"}]}],"stateMutability":"view"},{"type":"function","name":"setChannelFeeConfig","inputs":[{"name":"channel","type":"address","internalType":"address"},{"name":"data","type":"bytes","internalType":"bytes"}],"outputs":[],"stateMutability":"nonpayable"}],"bytecode":{"object":"0x608060405234801561001057600080fd5b50610419806100206000396000f3fe608060405234801561001057600080fd5b50600436106100415760003560e01c806314e6b37d146100465780632c67be37146100b2578063a999842414610136575b600080fd5b6100596100543660046102ee565b61014b565b6040516100a9919081516001600160a01b031681526020808301519082015260408083015190820152606080830151908201526080808301519082015260a0918201519181019190915260c00190565b60405180910390f35b6100ff6100c03660046102ee565b6000602081905290815260409020805460018201546002830154600384015460048501546005909501546001600160a01b039094169492939192909186565b604080516001600160a01b0390971687526020870195909552938501929092526060840152608083015260a082015260c0016100a9565b610149610144366004610312565b6101f0565b005b61018d6040518060c0016040528060006001600160a01b0316815260200160008152602001600081526020016000815260200160008152602001600081525090565b506001600160a01b0390811660009081526020818152604091829020825160c0810184528154909416845260018101549184019190915260028101549183019190915260038101546060830152600481015460808301526005015460a082015290565b6000808080808061020387890189610397565b9550955095509550955095506040518060c00160405280876001600160a01b03168152602001868152602001858152602001848152602001838152602001828152506000808b6001600160a01b03166001600160a01b0316815260200190815260200160002060008201518160000160006101000a8154816001600160a01b0302191690836001600160a01b031602179055506020820151816001015560408201518160020155606082015181600301556080820151816004015560a08201518160050155905050505050505050505050565b6001600160a01b03811681146102eb57600080fd5b50565b60006020828403121561030057600080fd5b813561030b816102d6565b9392505050565b60008060006040848603121561032757600080fd5b8335610332816102d6565b9250602084013567ffffffffffffffff8082111561034f57600080fd5b818601915086601f83011261036357600080fd5b81358181111561037257600080fd5b87602082850101111561038457600080fd5b6020830194508093505050509250925092565b60008060008060008060c087890312156103b057600080fd5b86356103bb816102d6565b9860208801359850604088013597606081013597506080810135965060a0013594509250505056fea2646970667358221220b8f19b0e8fd2476beab1db0212d1de90364bbd2c5c11a1d753d07d4d3490fb4a64736f6c63430008180033","linkReferences":{}},"methodIdentifiers":{"customFees(address)":"2c67be37","getChannelFeeConfig(address)":"14e6b37d","setChannelFeeConfig(address,bytes)":"a9998424"},"id":56}