{"abi":[{"type":"function","name":"setChannelFeeAddress","inputs":[{"name":"channelTreasury","type":"address","internalType":"address"}],"outputs":[],"stateMutability":"nonpayable"},{"type":"function","name":"setCreateReferral","inputs":[{"name":"_referral","type":"address","internalType":"address"},{"name":"tokenId","type":"uint256","internalType":"uint256"}],"outputs":[],"stateMutability":"nonpayable"},{"type":"function","name":"setCreatorAddress","inputs":[{"name":"_creator","type":"address","internalType":"address"},{"name":"tokenId","type":"uint256","internalType":"uint256"}],"outputs":[],"stateMutability":"nonpayable"}],"bytecode":{"object":"0x60a060405234801561001057600080fd5b506080516101b7610029600039600050506101b76000f3fe608060405234801561001057600080fd5b50600436106100415760003560e01c8063203e5fba146100465780635f26e9fb1461009257806388fe4a33146100cf575b600080fd5b610090610054366004610135565b3360009081526001602090815260408083209383529290522060030180546001600160a01b0319166001600160a01b0392909216919091179055565b005b6100906100a036600461015f565b33600090815260208190526040902080546001600160a01b0319166001600160a01b0392909216919091179055565b6100906100dd366004610135565b3360009081526001602090815260408083209383529290522060020180546001600160a01b0319166001600160a01b0392909216919091179055565b80356001600160a01b038116811461013057600080fd5b919050565b6000806040838503121561014857600080fd5b61015183610119565b946020939093013593505050565b60006020828403121561017157600080fd5b61017a82610119565b939250505056fea2646970667358221220ceb339a87acc6d917b68ab72d096c044c18cff7c791b7bdecbc6f39e463aa92064736f6c63430008180033","linkReferences":{}},"methodIdentifiers":{"setChannelFeeAddress(address)":"5f26e9fb","setCreateReferral(address,uint256)":"203e5fba","setCreatorAddress(address,uint256)":"88fe4a33"},"id":53}