{"abi":[{"type":"function","name":"handleCreateSale","inputs":[{"name":"saleArgs","type":"bytes[]","internalType":"bytes[]"}],"outputs":[],"stateMutability":"nonpayable"},{"type":"function","name":"initializeSaleStrategy","inputs":[{"name":"channelTreasury","type":"address","internalType":"address"}],"outputs":[],"stateMutability":"nonpayable"}],"bytecode":{"object":"0x6080604052348015600f57600080fd5b506101678061001f6000396000f3fe608060405234801561001057600080fd5b50600436106100365760003560e01c8063a8b11a131461003b578063e8b10d351461004f575b600080fd5b61004d61004936600461008c565b5050565b005b61004d61005d366004610101565b33600090815260208190526040902080546001600160a01b0319166001600160a01b0392909216919091179055565b6000806020838503121561009f57600080fd5b823567ffffffffffffffff808211156100b757600080fd5b818501915085601f8301126100cb57600080fd5b8135818111156100da57600080fd5b8660208260051b85010111156100ef57600080fd5b60209290920196919550909350505050565b60006020828403121561011357600080fd5b81356001600160a01b038116811461012a57600080fd5b939250505056fea264697066735822122035c5c08c41bd4f5c2f93e239d79c156b6ea863a9e7b20f9baf7bb0905436a7bf64736f6c63430008190033","linkReferences":{}},"methodIdentifiers":{"handleCreateSale(bytes[])":"a8b11a13","initializeSaleStrategy(address)":"e8b10d35"},"id":53}