{"abi":[{"type":"function","name":"getMintPrice","inputs":[{"name":"contractAddr","type":"address","internalType":"address"}],"outputs":[{"name":"","type":"uint256","internalType":"uint256"}],"stateMutability":"view"},{"type":"function","name":"handleCreateSale","inputs":[{"name":"args","type":"bytes","internalType":"bytes"}],"outputs":[],"stateMutability":"nonpayable"},{"type":"function","name":"initializeSaleStrategy","inputs":[{"name":"feeArgs","type":"bytes","internalType":"bytes"}],"outputs":[],"stateMutability":"nonpayable"}],"bytecode":{"object":"0x608060405234801561001057600080fd5b506104a4806100206000396000f3fe608060405234801561001057600080fd5b50600436106100415760003560e01c8063524d120714610046578063719d0f2b1461005b578063c6b757ad14610080575b600080fd5b6100596100543660046102dc565b610093565b005b61006e610069366004610363565b61012f565b60405190815260200160405180910390f35b61005961008e3660046102dc565b610202565b600080808080806100a687890189610380565b6040805160c0810182526001600160a01b0397881681526020808201978852818301968752606082019586526080820194855260a082019384523360009081529081905291909120905181546001600160a01b03191697169690961786559351600186015591516002850155516003840155516004830155516005909101555050505050505050565b6001600160a01b03808216600090815260208181526040808320815160c081018352815490951685526001810154858401526002810154858301526003810154606086019081526004820154608087015260059091015460a0860152815180830190925260098252686c6f6f6b206865726560b81b9282019290925290519192916101ba9190610230565b80608001518160a001518260200151836060015184604001516101dd91906103cc565b6101e791906103cc565b6101f191906103cc565b6101fb91906103cc565b9392505050565b61022c6040518060400160405280600981526020016868657265206920616d60b81b815250610275565b5050565b61022c8282604051602401610246929190610439565b60408051601f198184030181529190526020810180516001600160e01b03166309710a9d60e41b1790526102bb565b6102b881604051602401610289919061045b565b60408051601f198184030181529190526020810180516001600160e01b031663104c13eb60e21b1790526102bb565b50565b80516a636f6e736f6c652e6c6f67602083016000808483855afa5050505050565b600080602083850312156102ef57600080fd5b823567ffffffffffffffff8082111561030757600080fd5b818501915085601f83011261031b57600080fd5b81358181111561032a57600080fd5b86602082850101111561033c57600080fd5b60209290920196919550909350505050565b6001600160a01b03811681146102b857600080fd5b60006020828403121561037557600080fd5b81356101fb8161034e565b60008060008060008060c0878903121561039957600080fd5b86356103a48161034e565b9860208801359850604088013597606081013597506080810135965060a00135945092505050565b808201808211156103ed57634e487b7160e01b600052601160045260246000fd5b92915050565b6000815180845260005b81811015610419576020818501810151868301820152016103fd565b506000602082860101526020601f19601f83011685010191505092915050565b60408152600061044c60408301856103f3565b90508260208301529392505050565b6020815260006101fb60208301846103f356fea264697066735822122073977e8729ab1866660db70a055c4079b23208fd34b262d7312736817a3e529164736f6c63430008180033","linkReferences":{}},"methodIdentifiers":{"getMintPrice(address)":"719d0f2b","handleCreateSale(bytes)":"c6b757ad","initializeSaleStrategy(bytes)":"524d1207"},"id":54}