{"abi":[{"type":"function","name":"handleCreateSale","inputs":[{"name":"saleArgs","type":"bytes","internalType":"bytes"}],"outputs":[],"stateMutability":"nonpayable"},{"type":"function","name":"initializeSaleStrategy","inputs":[{"name":"channelTreasury","type":"address","internalType":"address"},{"name":"uplinkFee","type":"uint256","internalType":"uint256"},{"name":"channelFee","type":"uint256","internalType":"uint256"},{"name":"creatorFee","type":"uint256","internalType":"uint256"},{"name":"mintReferralFee","type":"uint256","internalType":"uint256"},{"name":"firstMinterFee","type":"uint256","internalType":"uint256"}],"outputs":[],"stateMutability":"nonpayable"}],"bytecode":{"object":"0x6080604052348015600f57600080fd5b506103088061001f6000396000f3fe608060405234801561001057600080fd5b50600436106100365760003560e01c8063561298091461003b578063c6b757ad14610050575b600080fd5b61004e6100493660046101ce565b610063565b005b61004e61005e36600461021a565b61011c565b6100a56040518060c0016040528060006001600160a01b0316815260200160008152602001600081526020016000815260200160008152602001600081525090565b6001600160a01b03968716815260208082019687526040808301968752606083019586526080830194855260a08301938452336000908152918290529020905181546001600160a01b0319169716969096178655935160018601559151600285015551600384015551600483015551600590910155565b600080808061012d8587018761028c565b6040805160808101825292835260208084019283526001600160a01b03958616848301908152948616606085019081523360009081526001808452848220828052909352929092209351845591519183019190915591516002820180549185166001600160a01b0319928316179055915160039091018054919093169116179055505050505050565b6001600160a01b03811681146101cb57600080fd5b50565b60008060008060008060c087890312156101e757600080fd5b86356101f2816101b6565b9860208801359850604088013597606081013597506080810135965060a00135945092505050565b6000806020838503121561022d57600080fd5b823567ffffffffffffffff8082111561024557600080fd5b818501915085601f83011261025957600080fd5b81358181111561026857600080fd5b86602082850101111561027a57600080fd5b60209290920196919550909350505050565b600080600080608085870312156102a257600080fd5b84356102ad816101b6565b935060208501356102bd816101b6565b9396939550505050604082013591606001359056fea26469706673582212206a4982ff720b3d5831b8bc638f04109a1167c593f23cd29cc7bb2db2a9244f1564736f6c63430008190033","linkReferences":{}},"methodIdentifiers":{"handleCreateSale(bytes)":"c6b757ad","initializeSaleStrategy(address,uint256,uint256,uint256,uint256,uint256)":"56129809"},"id":52}