{"abi":[{"type":"constructor","inputs":[{"name":"_channelImpl","type":"address","internalType":"contract IChannel"},{"name":"_customSalesImpl","type":"address","internalType":"contract ISales"}],"stateMutability":"nonpayable"},{"type":"function","name":"UPGRADE_INTERFACE_VERSION","inputs":[],"outputs":[{"name":"","type":"string","internalType":"string"}],"stateMutability":"view"},{"type":"function","name":"channelImpl","inputs":[],"outputs":[{"name":"","type":"address","internalType":"contract IChannel"}],"stateMutability":"view"},{"type":"function","name":"createChannel","inputs":[{"name":"uri","type":"string","internalType":"string"},{"name":"setupActions","type":"bytes[]","internalType":"bytes[]"}],"outputs":[{"name":"","type":"address","internalType":"address"}],"stateMutability":"nonpayable"},{"type":"function","name":"customSalesImpl","inputs":[],"outputs":[{"name":"","type":"address","internalType":"contract ISales"}],"stateMutability":"view"},{"type":"function","name":"deployedChannels","inputs":[{"name":"","type":"uint256","internalType":"uint256"}],"outputs":[{"name":"","type":"address","internalType":"address"}],"stateMutability":"view"},{"type":"function","name":"deployedChannelsLength","inputs":[],"outputs":[{"name":"","type":"uint256","internalType":"uint256"}],"stateMutability":"view"},{"type":"function","name":"initialize","inputs":[{"name":"_initOwner","type":"address","internalType":"address"}],"outputs":[],"stateMutability":"nonpayable"},{"type":"function","name":"owner","inputs":[],"outputs":[{"name":"","type":"address","internalType":"address"}],"stateMutability":"view"},{"type":"function","name":"proxiableUUID","inputs":[],"outputs":[{"name":"","type":"bytes32","internalType":"bytes32"}],"stateMutability":"view"},{"type":"function","name":"renounceOwnership","inputs":[],"outputs":[],"stateMutability":"nonpayable"},{"type":"function","name":"transferOwnership","inputs":[{"name":"newOwner","type":"address","internalType":"address"}],"outputs":[],"stateMutability":"nonpayable"},{"type":"function","name":"upgradeToAndCall","inputs":[{"name":"newImplementation","type":"address","internalType":"address"},{"name":"data","type":"bytes","internalType":"bytes"}],"outputs":[],"stateMutability":"payable"},{"type":"event","name":"Initialized","inputs":[{"name":"version","type":"uint64","indexed":false,"internalType":"uint64"}],"anonymous":false},{"type":"event","name":"OwnershipTransferred","inputs":[{"name":"previousOwner","type":"address","indexed":true,"internalType":"address"},{"name":"newOwner","type":"address","indexed":true,"internalType":"address"}],"anonymous":false},{"type":"event","name":"Upgraded","inputs":[{"name":"implementation","type":"address","indexed":true,"internalType":"address"}],"anonymous":false},{"type":"error","name":"AddressEmptyCode","inputs":[{"name":"target","type":"address","internalType":"address"}]},{"type":"error","name":"ERC1967InvalidImplementation","inputs":[{"name":"implementation","type":"address","internalType":"address"}]},{"type":"error","name":"ERC1967NonPayable","inputs":[]},{"type":"error","name":"FailedInnerCall","inputs":[]},{"type":"error","name":"InvalidInitialization","inputs":[]},{"type":"error","name":"NotInitializing","inputs":[]},{"type":"error","name":"OwnableInvalidOwner","inputs":[{"name":"owner","type":"address","internalType":"address"}]},{"type":"error","name":"OwnableUnauthorizedAccount","inputs":[{"name":"account","type":"address","internalType":"address"}]},{"type":"error","name":"UUPSUnauthorizedCallContext","inputs":[]},{"type":"error","name":"UUPSUnsupportedProxiableUUID","inputs":[{"name":"slot","type":"bytes32","internalType":"bytes32"}]}],"bytecode":{"object":"0x60e06040523060805234801561001457600080fd5b506040516113bf3803806113bf833981016040819052610033916101e1565b7ff0c57e16840df040f15088dc2f81fe391c3923bec73e23a9662efc9c229c6a00805468010000000000000000810460ff1615906001600160401b031660008115801561007d5750825b90506000826001600160401b031660011480156100995750303b155b9050811580156100a7575080155b156100c55760405163f92ee8a960e01b815260040160405180910390fd5b84546001600160401b031916600117855583156100f357845460ff60401b1916680100000000000000001785555b6001600160a01b0387166101645760405162461bcd60e51b815260206004820152602e60248201527f4368616e6e656c466163746f72793a20496e76616c6964204368616e6e656c2060448201526d24b6b83632b6b2b73a30ba34b7b760911b606482015260840160405180910390fd5b6001600160a01b0380881660a052861660c05283156101bd57845460ff60401b19168555604051600181527fc7f505b2f371ae2175ee4913f4499e1f2633a7b5936321eed1cdaeb6115181d29060200160405180910390a15b5050505050505061021b565b6001600160a01b03811681146101de57600080fd5b50565b600080604083850312156101f457600080fd5b82516101ff816101c9565b6020840151909250610210816101c9565b809150509250929050565b60805160a05160c05161116161025e600039600060be01526000818161023701526102e30152600081816104e30152818161050c015261065201526111616000f3fe6080604052600436106100a75760003560e01c8063ad3cb1cc11610064578063ad3cb1cc146101a7578063c4d66de8146101e5578063cb81713914610205578063eb86614c14610225578063f2fde38b14610259578063f57d610d1461027957600080fd5b806334c07f94146100ac5780634f1ef286146100fd57806352d1902d14610112578063715018a6146101355780638da5cb5b1461014a578063aaf9503614610187575b600080fd5b3480156100b857600080fd5b506100e07f000000000000000000000000000000000000000000000000000000000000000081565b6040516001600160a01b0390911681526020015b60405180910390f35b61011061010b366004610a8c565b61028e565b005b34801561011e57600080fd5b506101276102ad565b6040519081526020016100f4565b34801561014157600080fd5b506101106102ca565b34801561015657600080fd5b507f9016d09d72d40fdae2fd8ceac6b6234c7706214fd39c1cd1e609a0528c199300546001600160a01b03166100e0565b34801561019357600080fd5b506100e06101a2366004610b4e565b6102de565b3480156101b357600080fd5b506101d8604051806040016040528060058152602001640352e302e360dc1b81525081565b6040516100f49190610c37565b3480156101f157600080fd5b50610110610200366004610c6a565b610353565b34801561021157600080fd5b506100e0610220366004610c85565b61046b565b34801561023157600080fd5b506100e07f000000000000000000000000000000000000000000000000000000000000000081565b34801561026557600080fd5b50610110610274366004610c6a565b610495565b34801561028557600080fd5b50600054610127565b6102966104d8565b61029f8261057d565b6102a98282610585565b5050565b60006102b7610647565b5060008051602061110c83398151915290565b6102d2610690565b6102dc60006106eb565b565b6000807f000000000000000000000000000000000000000000000000000000000000000060405161030e90610a4d565b6001600160a01b039091168152602001604051809103906000f08015801561033a573d6000803e3d6000fd5b50905061034a818787878761075c565b95945050505050565b7ff0c57e16840df040f15088dc2f81fe391c3923bec73e23a9662efc9c229c6a008054600160401b810460ff16159067ffffffffffffffff166000811580156103995750825b905060008267ffffffffffffffff1660011480156103b65750303b155b9050811580156103c4575080155b156103e25760405163f92ee8a960e01b815260040160405180910390fd5b845467ffffffffffffffff19166001178555831561040c57845460ff60401b1916600160401b1785555b61041586610814565b61041d610825565b831561046357845460ff60401b19168555604051600181527fc7f505b2f371ae2175ee4913f4499e1f2633a7b5936321eed1cdaeb6115181d29060200160405180910390a15b505050505050565b6000818154811061047b57600080fd5b6000918252602090912001546001600160a01b0316905081565b61049d610690565b6001600160a01b0381166104cc57604051631e4fbdf760e01b8152600060048201526024015b60405180910390fd5b6104d5816106eb565b50565b306001600160a01b037f000000000000000000000000000000000000000000000000000000000000000016148061055f57507f00000000000000000000000000000000000000000000000000000000000000006001600160a01b031661055360008051602061110c833981519152546001600160a01b031690565b6001600160a01b031614155b156102dc5760405163703e46dd60e11b815260040160405180910390fd5b6104d5610690565b816001600160a01b03166352d1902d6040518163ffffffff1660e01b8152600401602060405180830381865afa9250505080156105df575060408051601f3d908101601f191682019092526105dc91810190610c9e565b60015b61060757604051634c9c8ce360e01b81526001600160a01b03831660048201526024016104c3565b60008051602061110c833981519152811461063857604051632a87526960e21b8152600481018290526024016104c3565b610642838361082d565b505050565b306001600160a01b037f000000000000000000000000000000000000000000000000000000000000000016146102dc5760405163703e46dd60e11b815260040160405180910390fd5b336106c27f9016d09d72d40fdae2fd8ceac6b6234c7706214fd39c1cd1e609a0528c199300546001600160a01b031690565b6001600160a01b0316146102dc5760405163118cdaa760e01b81523360048201526024016104c3565b7f9016d09d72d40fdae2fd8ceac6b6234c7706214fd39c1cd1e609a0528c19930080546001600160a01b031981166001600160a01b03848116918217845560405192169182907f8be0079c531659141344cd1fd0a4f28419497f9722a3daafe3b4186f6b6457e090600090a3505050565b6040516311282d4160e31b81526001600160a01b038616906389416a089061078e908790879087908790600401610ce0565b600060405180830381600087803b1580156107a857600080fd5b505af11580156107bc573d6000803e3d6000fd5b5050600080546001810182559080527f290decd9548b62a8d60345a988386fc84ba6bc95484008f6362f93160ef3e5630180546001600160a01b0319166001600160a01b039890981697909717909655505050505050565b61081c610883565b6104d5816108cc565b6102dc610883565b610836826108d4565b6040516001600160a01b038316907fbc7cd75a20ee27fd9adebab32041f755214dbc6bffa90cc0225b39da2e5c2d3b90600090a280511561087b576106428282610939565b6102a96109a6565b7ff0c57e16840df040f15088dc2f81fe391c3923bec73e23a9662efc9c229c6a0054600160401b900460ff166102dc57604051631afcd79f60e31b815260040160405180910390fd5b61049d610883565b806001600160a01b03163b60000361090a57604051634c9c8ce360e01b81526001600160a01b03821660048201526024016104c3565b60008051602061110c83398151915280546001600160a01b0319166001600160a01b0392909216919091179055565b6060600080846001600160a01b0316846040516109569190610d92565b600060405180830381855af49150503d8060008114610991576040519150601f19603f3d011682016040523d82523d6000602084013e610996565b606091505b509150915061034a8583836109c5565b34156102dc5760405163b398979f60e01b815260040160405180910390fd5b6060826109da576109d582610a24565b610a1d565b81511580156109f157506001600160a01b0384163b155b15610a1a57604051639996b31560e01b81526001600160a01b03851660048201526024016104c3565b50805b9392505050565b805115610a345780518082602001fd5b604051630a12f52160e11b815260040160405180910390fd5b61035d80610daf83390190565b80356001600160a01b0381168114610a7157600080fd5b919050565b634e487b7160e01b600052604160045260246000fd5b60008060408385031215610a9f57600080fd5b610aa883610a5a565b9150602083013567ffffffffffffffff80821115610ac557600080fd5b818501915085601f830112610ad957600080fd5b813581811115610aeb57610aeb610a76565b604051601f8201601f19908116603f01168101908382118183101715610b1357610b13610a76565b81604052828152886020848701011115610b2c57600080fd5b8260208601602083013760006020848301015280955050505050509250929050565b60008060008060408587031215610b6457600080fd5b843567ffffffffffffffff80821115610b7c57600080fd5b818701915087601f830112610b9057600080fd5b813581811115610b9f57600080fd5b886020828501011115610bb157600080fd5b602092830196509450908601359080821115610bcc57600080fd5b818701915087601f830112610be057600080fd5b813581811115610bef57600080fd5b8860208260051b8501011115610c0457600080fd5b95989497505060200194505050565b60005b83811015610c2e578181015183820152602001610c16565b50506000910152565b6020815260008251806020840152610c56816040850160208701610c13565b601f01601f19169190910160400192915050565b600060208284031215610c7c57600080fd5b610a1d82610a5a565b600060208284031215610c9757600080fd5b5035919050565b600060208284031215610cb057600080fd5b5051919050565b81835281816020850137506000828201602090810191909152601f909101601f19169091010190565b604081526000610cf4604083018688610cb7565b602083820381850152818583528183019050818660051b8401018760005b88811015610d8257858303601f190184528135368b9003601e19018112610d3857600080fd5b8a01858101903567ffffffffffffffff811115610d5457600080fd5b803603821315610d6357600080fd5b610d6e858284610cb7565b958701959450505090840190600101610d12565b50909a9950505050505050505050565b60008251610da4818460208701610c13565b919091019291505056fe608060405234801561001057600080fd5b5060405161035d38038061035d83398101604081905261002f9161024d565b604080516020810190915260008152819061004a8282610052565b5050506102a5565b61005b826100b1565b6040516001600160a01b038316907fbc7cd75a20ee27fd9adebab32041f755214dbc6bffa90cc0225b39da2e5c2d3b90600090a28051156100a5576100a0828261012d565b505050565b6100ad6101a4565b5050565b806001600160a01b03163b6000036100ec57604051634c9c8ce360e01b81526001600160a01b03821660048201526024015b60405180910390fd5b7f360894a13ba1a3210667c828492db98dca3e2076cc3735a920a3ca505d382bbc80546001600160a01b0319166001600160a01b0392909216919091179055565b6060600080846001600160a01b03168460405161014a9190610276565b600060405180830381855af49150503d8060008114610185576040519150601f19603f3d011682016040523d82523d6000602084013e61018a565b606091505b50909250905061019b8583836101c5565b95945050505050565b34156101c35760405163b398979f60e01b815260040160405180910390fd5b565b6060826101da576101d582610224565b61021d565b81511580156101f157506001600160a01b0384163b155b1561021a57604051639996b31560e01b81526001600160a01b03851660048201526024016100e3565b50805b9392505050565b8051156102345780518082602001fd5b604051630a12f52160e11b815260040160405180910390fd5b60006020828403121561025f57600080fd5b81516001600160a01b038116811461021d57600080fd5b6000825160005b81811015610297576020818601810151858301520161027d565b506000920191825250919050565b60aa806102b36000396000f3fe6080604052600a600c565b005b60186014601a565b6051565b565b6000604c7f360894a13ba1a3210667c828492db98dca3e2076cc3735a920a3ca505d382bbc546001600160a01b031690565b905090565b3660008037600080366000845af43d6000803e808015606f573d6000f35b3d6000fdfea2646970667358221220719afb28e0f59ab6d6fc19b6d34c8100a5b306c9c12c6ff3f85c732b73f3286364736f6c63430008190033360894a13ba1a3210667c828492db98dca3e2076cc3735a920a3ca505d382bbca264697066735822122025415579c2e3b62039cb31fd4efff666798a9b243391bbcec41793feb1222a5e64736f6c63430008190033","linkReferences":{}},"methodIdentifiers":{"UPGRADE_INTERFACE_VERSION()":"ad3cb1cc","channelImpl()":"eb86614c","createChannel(string,bytes[])":"aaf95036","customSalesImpl()":"34c07f94","deployedChannels(uint256)":"cb817139","deployedChannelsLength()":"f57d610d","initialize(address)":"c4d66de8","owner()":"8da5cb5b","proxiableUUID()":"52d1902d","renounceOwnership()":"715018a6","transferOwnership(address)":"f2fde38b","upgradeToAndCall(address,bytes)":"4f1ef286"},"id":45}