{"abi":[{"type":"constructor","inputs":[{"name":"_channelImpl","type":"address","internalType":"contract IChannel"},{"name":"_standardSalesImpl","type":"address","internalType":"contract ISales"}],"stateMutability":"nonpayable"},{"type":"function","name":"UPGRADE_INTERFACE_VERSION","inputs":[],"outputs":[{"name":"","type":"string","internalType":"string"}],"stateMutability":"view"},{"type":"function","name":"channelImpl","inputs":[],"outputs":[{"name":"","type":"address","internalType":"contract IChannel"}],"stateMutability":"view"},{"type":"function","name":"createChannel","inputs":[{"name":"uri","type":"string","internalType":"string"},{"name":"setupActions","type":"bytes[]","internalType":"bytes[]"}],"outputs":[{"name":"","type":"address","internalType":"address"}],"stateMutability":"nonpayable"},{"type":"function","name":"deployedChannels","inputs":[{"name":"","type":"uint256","internalType":"uint256"}],"outputs":[{"name":"","type":"address","internalType":"address"}],"stateMutability":"view"},{"type":"function","name":"deployedChannelsLength","inputs":[],"outputs":[{"name":"","type":"uint256","internalType":"uint256"}],"stateMutability":"view"},{"type":"function","name":"initialize","inputs":[{"name":"_initOwner","type":"address","internalType":"address"}],"outputs":[],"stateMutability":"nonpayable"},{"type":"function","name":"owner","inputs":[],"outputs":[{"name":"","type":"address","internalType":"address"}],"stateMutability":"view"},{"type":"function","name":"proxiableUUID","inputs":[],"outputs":[{"name":"","type":"bytes32","internalType":"bytes32"}],"stateMutability":"view"},{"type":"function","name":"renounceOwnership","inputs":[],"outputs":[],"stateMutability":"nonpayable"},{"type":"function","name":"standardSalesImpl","inputs":[],"outputs":[{"name":"","type":"address","internalType":"contract ISales"}],"stateMutability":"view"},{"type":"function","name":"transferOwnership","inputs":[{"name":"newOwner","type":"address","internalType":"address"}],"outputs":[],"stateMutability":"nonpayable"},{"type":"function","name":"upgradeToAndCall","inputs":[{"name":"newImplementation","type":"address","internalType":"address"},{"name":"data","type":"bytes","internalType":"bytes"}],"outputs":[],"stateMutability":"payable"},{"type":"event","name":"Initialized","inputs":[{"name":"version","type":"uint64","indexed":false,"internalType":"uint64"}],"anonymous":false},{"type":"event","name":"OwnershipTransferred","inputs":[{"name":"previousOwner","type":"address","indexed":true,"internalType":"address"},{"name":"newOwner","type":"address","indexed":true,"internalType":"address"}],"anonymous":false},{"type":"event","name":"Upgraded","inputs":[{"name":"implementation","type":"address","indexed":true,"internalType":"address"}],"anonymous":false},{"type":"error","name":"AddressEmptyCode","inputs":[{"name":"target","type":"address","internalType":"address"}]},{"type":"error","name":"ERC1967InvalidImplementation","inputs":[{"name":"implementation","type":"address","internalType":"address"}]},{"type":"error","name":"ERC1967NonPayable","inputs":[]},{"type":"error","name":"FailedInnerCall","inputs":[]},{"type":"error","name":"InvalidInitialization","inputs":[]},{"type":"error","name":"NotInitializing","inputs":[]},{"type":"error","name":"OwnableInvalidOwner","inputs":[{"name":"owner","type":"address","internalType":"address"}]},{"type":"error","name":"OwnableUnauthorizedAccount","inputs":[{"name":"account","type":"address","internalType":"address"}]},{"type":"error","name":"UUPSUnauthorizedCallContext","inputs":[]},{"type":"error","name":"UUPSUnsupportedProxiableUUID","inputs":[{"name":"slot","type":"bytes32","internalType":"bytes32"}]}],"bytecode":{"object":"0x60e0604052306080523480156200001557600080fd5b5060405162001493380380620014938339810160408190526200003891620001ef565b7ff0c57e16840df040f15088dc2f81fe391c3923bec73e23a9662efc9c229c6a00805468010000000000000000810460ff1615906001600160401b0316600081158015620000835750825b90506000826001600160401b03166001148015620000a05750303b155b905081158015620000af575080155b15620000ce5760405163f92ee8a960e01b815260040160405180910390fd5b84546001600160401b03191660011785558315620000fd57845460ff60401b1916680100000000000000001785555b6001600160a01b0387166200016f5760405162461bcd60e51b815260206004820152602e60248201527f4368616e6e656c466163746f72793a20496e76616c6964204368616e6e656c2060448201526d24b6b83632b6b2b73a30ba34b7b760911b606482015260840160405180910390fd5b6001600160a01b0380881660a052861660c0528315620001c957845460ff60401b19168555604051600181527fc7f505b2f371ae2175ee4913f4499e1f2633a7b5936321eed1cdaeb6115181d29060200160405180910390a15b505050505050506200022e565b6001600160a01b0381168114620001ec57600080fd5b50565b600080604083850312156200020357600080fd5b82516200021081620001d6565b60208401519092506200022381620001d6565b809150509250929050565b60805160a05160c05161122162000272600039600060e7015260008181610269015261032901526000818161053e0152818161056801526106bd01526112216000f3fe608060405260043610620000b55760003560e01c8063ad3cb1cc116200006c578063ad3cb1cc14620001c9578063c4d66de8146200020b578063cb8171391462000230578063eb86614c1462000255578063f2fde38b146200028b578063f57d610d14620002b057600080fd5b80634f1ef28614620000ba578063516b3c0014620000d357806352d1902d1462000126578063715018a6146200014d5780638da5cb5b1462000165578063aaf9503614620001a4575b600080fd5b620000d1620000cb36600462000b23565b620002c7565b005b348015620000e057600080fd5b50620001097f000000000000000000000000000000000000000000000000000000000000000081565b6040516001600160a01b0390911681526020015b60405180910390f35b3480156200013357600080fd5b506200013e620002ec565b6040519081526020016200011d565b3480156200015a57600080fd5b50620000d16200030c565b3480156200017257600080fd5b507f9016d09d72d40fdae2fd8ceac6b6234c7706214fd39c1cd1e609a0528c199300546001600160a01b031662000109565b348015620001b157600080fd5b5062000109620001c336600462000bf1565b62000324565b348015620001d657600080fd5b50620001fc604051806040016040528060058152602001640352e302e360dc1b81525081565b6040516200011d919062000ce5565b3480156200021857600080fd5b50620000d16200022a36600462000d1a565b6200039e565b3480156200023d57600080fd5b50620001096200024f36600462000d38565b620004c0565b3480156200026257600080fd5b50620001097f000000000000000000000000000000000000000000000000000000000000000081565b3480156200029857600080fd5b50620000d1620002aa36600462000d1a565b620004eb565b348015620002bd57600080fd5b506000546200013e565b620002d162000533565b620002dc82620005dc565b620002e88282620005e6565b5050565b6000620002f8620006b2565b50600080516020620011cc83398151915290565b62000316620006fc565b6200032260006200075a565b565b6000807f0000000000000000000000000000000000000000000000000000000000000000604051620003569062000ae2565b6001600160a01b039091168152602001604051809103906000f08015801562000383573d6000803e3d6000fd5b509050620003958187878787620007cb565b95945050505050565b7ff0c57e16840df040f15088dc2f81fe391c3923bec73e23a9662efc9c229c6a008054600160401b810460ff16159067ffffffffffffffff16600081158015620003e55750825b905060008267ffffffffffffffff166001148015620004035750303b155b90508115801562000412575080155b15620004315760405163f92ee8a960e01b815260040160405180910390fd5b845467ffffffffffffffff1916600117855583156200045c57845460ff60401b1916600160401b1785555b620004678662000887565b620004716200089c565b8315620004b857845460ff60401b19168555604051600181527fc7f505b2f371ae2175ee4913f4499e1f2633a7b5936321eed1cdaeb6115181d29060200160405180910390a15b505050505050565b60008181548110620004d157600080fd5b6000918252602090912001546001600160a01b0316905081565b620004f5620006fc565b6001600160a01b0381166200052557604051631e4fbdf760e01b8152600060048201526024015b60405180910390fd5b62000530816200075a565b50565b306001600160a01b037f0000000000000000000000000000000000000000000000000000000000000000161480620005bd57507f00000000000000000000000000000000000000000000000000000000000000006001600160a01b0316620005b1600080516020620011cc833981519152546001600160a01b031690565b6001600160a01b031614155b15620003225760405163703e46dd60e11b815260040160405180910390fd5b62000530620006fc565b816001600160a01b03166352d1902d6040518163ffffffff1660e01b8152600401602060405180830381865afa92505050801562000643575060408051601f3d908101601f19168201909252620006409181019062000d52565b60015b6200066d57604051634c9c8ce360e01b81526001600160a01b03831660048201526024016200051c565b600080516020620011cc8339815191528114620006a157604051632a87526960e21b8152600481018290526024016200051c565b620006ad8383620008a6565b505050565b306001600160a01b037f00000000000000000000000000000000000000000000000000000000000000001614620003225760405163703e46dd60e11b815260040160405180910390fd5b336200072f7f9016d09d72d40fdae2fd8ceac6b6234c7706214fd39c1cd1e609a0528c199300546001600160a01b031690565b6001600160a01b031614620003225760405163118cdaa760e01b81523360048201526024016200051c565b7f9016d09d72d40fdae2fd8ceac6b6234c7706214fd39c1cd1e609a0528c19930080546001600160a01b031981166001600160a01b03848116918217845560405192169182907f8be0079c531659141344cd1fd0a4f28419497f9722a3daafe3b4186f6b6457e090600090a3505050565b6040516311282d4160e31b81526001600160a01b038616906389416a0890620007ff90879087908790879060040162000d95565b600060405180830381600087803b1580156200081a57600080fd5b505af11580156200082f573d6000803e3d6000fd5b5050600080546001810182559080527f290decd9548b62a8d60345a988386fc84ba6bc95484008f6362f93160ef3e5630180546001600160a01b0319166001600160a01b039890981697909717909655505050505050565b6200089162000903565b62000530816200094d565b6200032262000903565b620008b18262000957565b6040516001600160a01b038316907fbc7cd75a20ee27fd9adebab32041f755214dbc6bffa90cc0225b39da2e5c2d3b90600090a2805115620008f957620006ad8282620009bf565b620002e862000a32565b7ff0c57e16840df040f15088dc2f81fe391c3923bec73e23a9662efc9c229c6a0054600160401b900460ff166200032257604051631afcd79f60e31b815260040160405180910390fd5b620004f562000903565b806001600160a01b03163b6000036200098f57604051634c9c8ce360e01b81526001600160a01b03821660048201526024016200051c565b600080516020620011cc83398151915280546001600160a01b0319166001600160a01b0392909216919091179055565b6060600080846001600160a01b031684604051620009de919062000e50565b600060405180830381855af49150503d806000811462000a1b576040519150601f19603f3d011682016040523d82523d6000602084013e62000a20565b606091505b50915091506200039585838362000a52565b3415620003225760405163b398979f60e01b815260040160405180910390fd5b60608262000a6b5762000a658262000ab8565b62000ab1565b815115801562000a8357506001600160a01b0384163b155b1562000aae57604051639996b31560e01b81526001600160a01b03851660048201526024016200051c565b50805b9392505050565b80511562000ac95780518082602001fd5b604051630a12f52160e11b815260040160405180910390fd5b61035d8062000e6f83390190565b80356001600160a01b038116811462000b0857600080fd5b919050565b634e487b7160e01b600052604160045260246000fd5b6000806040838503121562000b3757600080fd5b62000b428362000af0565b9150602083013567ffffffffffffffff8082111562000b6057600080fd5b818501915085601f83011262000b7557600080fd5b81358181111562000b8a5762000b8a62000b0d565b604051601f8201601f19908116603f0116810190838211818310171562000bb55762000bb562000b0d565b8160405282815288602084870101111562000bcf57600080fd5b8260208601602083013760006020848301015280955050505050509250929050565b6000806000806040858703121562000c0857600080fd5b843567ffffffffffffffff8082111562000c2157600080fd5b818701915087601f83011262000c3657600080fd5b81358181111562000c4657600080fd5b88602082850101111562000c5957600080fd5b60209283019650945090860135908082111562000c7557600080fd5b818701915087601f83011262000c8a57600080fd5b81358181111562000c9a57600080fd5b8860208260051b850101111562000cb057600080fd5b95989497505060200194505050565b60005b8381101562000cdc57818101518382015260200162000cc2565b50506000910152565b602081526000825180602084015262000d0681604085016020870162000cbf565b601f01601f19169190910160400192915050565b60006020828403121562000d2d57600080fd5b62000ab18262000af0565b60006020828403121562000d4b57600080fd5b5035919050565b60006020828403121562000d6557600080fd5b5051919050565b81835281816020850137506000828201602090810191909152601f909101601f19169091010190565b60408152600062000dab60408301868862000d6c565b602083820381850152818583528183019050818660051b8401018760005b8881101562000e4057858303601f190184528135368b9003601e1901811262000df157600080fd5b8a01858101903567ffffffffffffffff81111562000e0e57600080fd5b80360382131562000e1e57600080fd5b62000e2b85828462000d6c565b95870195945050509084019060010162000dc9565b50909a9950505050505050505050565b6000825162000e6481846020870162000cbf565b919091019291505056fe608060405234801561001057600080fd5b5060405161035d38038061035d83398101604081905261002f9161024d565b604080516020810190915260008152819061004a8282610052565b5050506102a5565b61005b826100b1565b6040516001600160a01b038316907fbc7cd75a20ee27fd9adebab32041f755214dbc6bffa90cc0225b39da2e5c2d3b90600090a28051156100a5576100a0828261012d565b505050565b6100ad6101a4565b5050565b806001600160a01b03163b6000036100ec57604051634c9c8ce360e01b81526001600160a01b03821660048201526024015b60405180910390fd5b7f360894a13ba1a3210667c828492db98dca3e2076cc3735a920a3ca505d382bbc80546001600160a01b0319166001600160a01b0392909216919091179055565b6060600080846001600160a01b03168460405161014a9190610276565b600060405180830381855af49150503d8060008114610185576040519150601f19603f3d011682016040523d82523d6000602084013e61018a565b606091505b50909250905061019b8583836101c5565b95945050505050565b34156101c35760405163b398979f60e01b815260040160405180910390fd5b565b6060826101da576101d582610224565b61021d565b81511580156101f157506001600160a01b0384163b155b1561021a57604051639996b31560e01b81526001600160a01b03851660048201526024016100e3565b50805b9392505050565b8051156102345780518082602001fd5b604051630a12f52160e11b815260040160405180910390fd5b60006020828403121561025f57600080fd5b81516001600160a01b038116811461021d57600080fd5b6000825160005b81811015610297576020818601810151858301520161027d565b506000920191825250919050565b60aa806102b36000396000f3fe6080604052600a600c565b005b60186014601a565b6051565b565b6000604c7f360894a13ba1a3210667c828492db98dca3e2076cc3735a920a3ca505d382bbc546001600160a01b031690565b905090565b3660008037600080366000845af43d6000803e808015606f573d6000f35b3d6000fdfea2646970667358221220c6426f00813ab67faceeed68b05473e123e760ec150df2871dcb485b760e54da64736f6c63430008180033360894a13ba1a3210667c828492db98dca3e2076cc3735a920a3ca505d382bbca264697066735822122089658acb56a26c7ef0ed272c5cfc02bc9944ba93f5f3598e66779785d1fe298564736f6c63430008180033","linkReferences":{}},"methodIdentifiers":{"UPGRADE_INTERFACE_VERSION()":"ad3cb1cc","channelImpl()":"eb86614c","createChannel(string,bytes[])":"aaf95036","deployedChannels(uint256)":"cb817139","deployedChannelsLength()":"f57d610d","initialize(address)":"c4d66de8","owner()":"8da5cb5b","proxiableUUID()":"52d1902d","renounceOwnership()":"715018a6","standardSalesImpl()":"516b3c00","transferOwnership(address)":"f2fde38b","upgradeToAndCall(address,bytes)":"4f1ef286"},"id":45}