{"abi":[{"type":"constructor","inputs":[{"name":"_channelImpl","type":"address","internalType":"contract IChannel"}],"stateMutability":"nonpayable"},{"type":"function","name":"UPGRADE_INTERFACE_VERSION","inputs":[],"outputs":[{"name":"","type":"string","internalType":"string"}],"stateMutability":"view"},{"type":"function","name":"channelImpl","inputs":[],"outputs":[{"name":"","type":"address","internalType":"contract IChannel"}],"stateMutability":"view"},{"type":"function","name":"contractName","inputs":[],"outputs":[{"name":"","type":"string","internalType":"string"}],"stateMutability":"pure"},{"type":"function","name":"contractURI","inputs":[],"outputs":[{"name":"","type":"string","internalType":"string"}],"stateMutability":"pure"},{"type":"function","name":"contractVersion","inputs":[],"outputs":[{"name":"","type":"string","internalType":"string"}],"stateMutability":"pure"},{"type":"function","name":"createChannel","inputs":[{"name":"uri","type":"string","internalType":"string"},{"name":"setupActions","type":"bytes[]","internalType":"bytes[]"}],"outputs":[{"name":"","type":"address","internalType":"address"}],"stateMutability":"nonpayable"},{"type":"function","name":"deployedChannels","inputs":[{"name":"","type":"uint256","internalType":"uint256"}],"outputs":[{"name":"","type":"address","internalType":"address"}],"stateMutability":"view"},{"type":"function","name":"initialize","inputs":[{"name":"_initOwner","type":"address","internalType":"address"}],"outputs":[],"stateMutability":"nonpayable"},{"type":"function","name":"owner","inputs":[],"outputs":[{"name":"","type":"address","internalType":"address"}],"stateMutability":"view"},{"type":"function","name":"proxiableUUID","inputs":[],"outputs":[{"name":"","type":"bytes32","internalType":"bytes32"}],"stateMutability":"view"},{"type":"function","name":"renounceOwnership","inputs":[],"outputs":[],"stateMutability":"nonpayable"},{"type":"function","name":"transferOwnership","inputs":[{"name":"newOwner","type":"address","internalType":"address"}],"outputs":[],"stateMutability":"nonpayable"},{"type":"function","name":"upgradeToAndCall","inputs":[{"name":"newImplementation","type":"address","internalType":"address"},{"name":"data","type":"bytes","internalType":"bytes"}],"outputs":[],"stateMutability":"payable"},{"type":"event","name":"Initialized","inputs":[{"name":"version","type":"uint64","indexed":false,"internalType":"uint64"}],"anonymous":false},{"type":"event","name":"OwnershipTransferred","inputs":[{"name":"previousOwner","type":"address","indexed":true,"internalType":"address"},{"name":"newOwner","type":"address","indexed":true,"internalType":"address"}],"anonymous":false},{"type":"event","name":"Upgraded","inputs":[{"name":"implementation","type":"address","indexed":true,"internalType":"address"}],"anonymous":false},{"type":"error","name":"AddressEmptyCode","inputs":[{"name":"target","type":"address","internalType":"address"}]},{"type":"error","name":"ERC1967InvalidImplementation","inputs":[{"name":"implementation","type":"address","internalType":"address"}]},{"type":"error","name":"ERC1967NonPayable","inputs":[]},{"type":"error","name":"FailedInnerCall","inputs":[]},{"type":"error","name":"InvalidInitialization","inputs":[]},{"type":"error","name":"NotInitializing","inputs":[]},{"type":"error","name":"OwnableInvalidOwner","inputs":[{"name":"owner","type":"address","internalType":"address"}]},{"type":"error","name":"OwnableUnauthorizedAccount","inputs":[{"name":"account","type":"address","internalType":"address"}]},{"type":"error","name":"UUPSUnauthorizedCallContext","inputs":[]},{"type":"error","name":"UUPSUnsupportedProxiableUUID","inputs":[{"name":"slot","type":"bytes32","internalType":"bytes32"}]}],"bytecode":{"object":"0x60c06040523060805234801561001457600080fd5b506040516114ea3803806114ea833981016040819052610033916101c2565b7ff0c57e16840df040f15088dc2f81fe391c3923bec73e23a9662efc9c229c6a00805468010000000000000000810460ff1615906001600160401b031660008115801561007d5750825b90506000826001600160401b031660011480156100995750303b155b9050811580156100a7575080155b156100c55760405163f92ee8a960e01b815260040160405180910390fd5b84546001600160401b031916600117855583156100f357845460ff60401b1916680100000000000000001785555b6001600160a01b0386166101645760405162461bcd60e51b815260206004820152602e60248201527f4368616e6e656c466163746f72793a20496e76616c6964204368616e6e656c2060448201526d24b6b83632b6b2b73a30ba34b7b760911b606482015260840160405180910390fd5b6001600160a01b03861660a05283156101b757845460ff60401b19168555604051600181527fc7f505b2f371ae2175ee4913f4499e1f2633a7b5936321eed1cdaeb6115181d29060200160405180910390a15b5050505050506101f2565b6000602082840312156101d457600080fd5b81516001600160a01b03811681146101eb57600080fd5b9392505050565b60805160a0516112be61022c600039600081816102cf01526103780152600081816105ae015281816105d8015261072d01526112be6000f3fe608060405260043610620000d25760003560e01c8063aaf950361162000089578063cb8171391162000060578063cb817139146200027e578063e8a3d48514620002a3578063eb86614c14620002bb578063f2fde38b14620002f157600080fd5b8063aaf950361462000201578063ad3cb1cc1462000226578063c4d66de8146200025957600080fd5b80634f1ef28614620000d757806352d1902d14620000f0578063715018a6146200011b57806375d0c0dc14620001335780638da5cb5b146200017e578063a0a8e46014620001d1575b600080fd5b620000ee620000e836600462000b93565b62000316565b005b348015620000fd57600080fd5b50620001086200033b565b6040519081526020015b60405180910390f35b3480156200012857600080fd5b50620000ee6200035b565b3480156200014057600080fd5b5060408051808201909152601681527555706c696e6b204368616e6e656c20466163746f727960501b60208201525b60405162000112919062000c87565b3480156200018b57600080fd5b507f9016d09d72d40fdae2fd8ceac6b6234c7706214fd39c1cd1e609a0528c199300546001600160a01b03165b6040516001600160a01b03909116815260200162000112565b348015620001de57600080fd5b506040805180820190915260058152640312e302e360dc1b60208201526200016f565b3480156200020e57600080fd5b50620001b86200022036600462000cbc565b62000373565b3480156200023357600080fd5b506200016f604051806040016040528060058152602001640352e302e360dc1b81525081565b3480156200026657600080fd5b50620000ee6200027836600462000d8a565b620003ed565b3480156200028b57600080fd5b50620001b86200029d36600462000da8565b6200050f565b348015620002b057600080fd5b506200016f6200053a565b348015620002c857600080fd5b50620001b87f000000000000000000000000000000000000000000000000000000000000000081565b348015620002fe57600080fd5b50620000ee6200031036600462000d8a565b6200055b565b62000320620005a3565b6200032b826200064c565b62000337828262000656565b5050565b60006200034762000722565b506000805160206200123c83398151915290565b620003656200076c565b620003716000620007ca565b565b6000807f0000000000000000000000000000000000000000000000000000000000000000604051620003a59062000b52565b6001600160a01b039091168152602001604051809103906000f080158015620003d2573d6000803e3d6000fd5b509050620003e481878787876200083b565b95945050505050565b7ff0c57e16840df040f15088dc2f81fe391c3923bec73e23a9662efc9c229c6a008054600160401b810460ff16159067ffffffffffffffff16600081158015620004345750825b905060008267ffffffffffffffff166001148015620004525750303b155b90508115801562000461575080155b15620004805760405163f92ee8a960e01b815260040160405180910390fd5b845467ffffffffffffffff191660011785558315620004ab57845460ff60401b1916600160401b1785555b620004b686620008f7565b620004c06200090c565b83156200050757845460ff60401b19168555604051600181527fc7f505b2f371ae2175ee4913f4499e1f2633a7b5936321eed1cdaeb6115181d29060200160405180910390a15b505050505050565b600081815481106200052057600080fd5b6000918252602090912001546001600160a01b0316905081565b60606040518060600160405280602d81526020016200125c602d9139905090565b620005656200076c565b6001600160a01b0381166200059557604051631e4fbdf760e01b8152600060048201526024015b60405180910390fd5b620005a081620007ca565b50565b306001600160a01b037f00000000000000000000000000000000000000000000000000000000000000001614806200062d57507f00000000000000000000000000000000000000000000000000000000000000006001600160a01b0316620006216000805160206200123c833981519152546001600160a01b031690565b6001600160a01b031614155b15620003715760405163703e46dd60e11b815260040160405180910390fd5b620005a06200076c565b816001600160a01b03166352d1902d6040518163ffffffff1660e01b8152600401602060405180830381865afa925050508015620006b3575060408051601f3d908101601f19168201909252620006b09181019062000dc2565b60015b620006dd57604051634c9c8ce360e01b81526001600160a01b03831660048201526024016200058c565b6000805160206200123c83398151915281146200071157604051632a87526960e21b8152600481018290526024016200058c565b6200071d838362000916565b505050565b306001600160a01b037f00000000000000000000000000000000000000000000000000000000000000001614620003715760405163703e46dd60e11b815260040160405180910390fd5b336200079f7f9016d09d72d40fdae2fd8ceac6b6234c7706214fd39c1cd1e609a0528c199300546001600160a01b031690565b6001600160a01b031614620003715760405163118cdaa760e01b81523360048201526024016200058c565b7f9016d09d72d40fdae2fd8ceac6b6234c7706214fd39c1cd1e609a0528c19930080546001600160a01b031981166001600160a01b03848116918217845560405192169182907f8be0079c531659141344cd1fd0a4f28419497f9722a3daafe3b4186f6b6457e090600090a3505050565b6040516311282d4160e31b81526001600160a01b038616906389416a08906200086f90879087908790879060040162000e05565b600060405180830381600087803b1580156200088a57600080fd5b505af11580156200089f573d6000803e3d6000fd5b5050600080546001810182559080527f290decd9548b62a8d60345a988386fc84ba6bc95484008f6362f93160ef3e5630180546001600160a01b0319166001600160a01b039890981697909717909655505050505050565b6200090162000973565b620005a081620009bd565b6200037162000973565b6200092182620009c7565b6040516001600160a01b038316907fbc7cd75a20ee27fd9adebab32041f755214dbc6bffa90cc0225b39da2e5c2d3b90600090a280511562000969576200071d828262000a2f565b6200033762000aa2565b7ff0c57e16840df040f15088dc2f81fe391c3923bec73e23a9662efc9c229c6a0054600160401b900460ff166200037157604051631afcd79f60e31b815260040160405180910390fd5b6200056562000973565b806001600160a01b03163b600003620009ff57604051634c9c8ce360e01b81526001600160a01b03821660048201526024016200058c565b6000805160206200123c83398151915280546001600160a01b0319166001600160a01b0392909216919091179055565b6060600080846001600160a01b03168460405162000a4e919062000ec0565b600060405180830381855af49150503d806000811462000a8b576040519150601f19603f3d011682016040523d82523d6000602084013e62000a90565b606091505b5091509150620003e485838362000ac2565b3415620003715760405163b398979f60e01b815260040160405180910390fd5b60608262000adb5762000ad58262000b28565b62000b21565b815115801562000af357506001600160a01b0384163b155b1562000b1e57604051639996b31560e01b81526001600160a01b03851660048201526024016200058c565b50805b9392505050565b80511562000b395780518082602001fd5b604051630a12f52160e11b815260040160405180910390fd5b61035d8062000edf83390190565b80356001600160a01b038116811462000b7857600080fd5b919050565b634e487b7160e01b600052604160045260246000fd5b6000806040838503121562000ba757600080fd5b62000bb28362000b60565b9150602083013567ffffffffffffffff8082111562000bd057600080fd5b818501915085601f83011262000be557600080fd5b81358181111562000bfa5762000bfa62000b7d565b604051601f8201601f19908116603f0116810190838211818310171562000c255762000c2562000b7d565b8160405282815288602084870101111562000c3f57600080fd5b8260208601602083013760006020848301015280955050505050509250929050565b60005b8381101562000c7e57818101518382015260200162000c64565b50506000910152565b602081526000825180602084015262000ca881604085016020870162000c61565b601f01601f19169190910160400192915050565b6000806000806040858703121562000cd357600080fd5b843567ffffffffffffffff8082111562000cec57600080fd5b818701915087601f83011262000d0157600080fd5b81358181111562000d1157600080fd5b88602082850101111562000d2457600080fd5b60209283019650945090860135908082111562000d4057600080fd5b818701915087601f83011262000d5557600080fd5b81358181111562000d6557600080fd5b8860208260051b850101111562000d7b57600080fd5b95989497505060200194505050565b60006020828403121562000d9d57600080fd5b62000b218262000b60565b60006020828403121562000dbb57600080fd5b5035919050565b60006020828403121562000dd557600080fd5b5051919050565b81835281816020850137506000828201602090810191909152601f909101601f19169091010190565b60408152600062000e1b60408301868862000ddc565b602083820381850152818583528183019050818660051b8401018760005b8881101562000eb057858303601f190184528135368b9003601e1901811262000e6157600080fd5b8a01858101903567ffffffffffffffff81111562000e7e57600080fd5b80360382131562000e8e57600080fd5b62000e9b85828462000ddc565b95870195945050509084019060010162000e39565b50909a9950505050505050505050565b6000825162000ed481846020870162000c61565b919091019291505056fe608060405234801561001057600080fd5b5060405161035d38038061035d83398101604081905261002f9161024d565b604080516020810190915260008152819061004a8282610052565b5050506102a5565b61005b826100b1565b6040516001600160a01b038316907fbc7cd75a20ee27fd9adebab32041f755214dbc6bffa90cc0225b39da2e5c2d3b90600090a28051156100a5576100a0828261012d565b505050565b6100ad6101a4565b5050565b806001600160a01b03163b6000036100ec57604051634c9c8ce360e01b81526001600160a01b03821660048201526024015b60405180910390fd5b7f360894a13ba1a3210667c828492db98dca3e2076cc3735a920a3ca505d382bbc80546001600160a01b0319166001600160a01b0392909216919091179055565b6060600080846001600160a01b03168460405161014a9190610276565b600060405180830381855af49150503d8060008114610185576040519150601f19603f3d011682016040523d82523d6000602084013e61018a565b606091505b50909250905061019b8583836101c5565b95945050505050565b34156101c35760405163b398979f60e01b815260040160405180910390fd5b565b6060826101da576101d582610224565b61021d565b81511580156101f157506001600160a01b0384163b155b1561021a57604051639996b31560e01b81526001600160a01b03851660048201526024016100e3565b50805b9392505050565b8051156102345780518082602001fd5b604051630a12f52160e11b815260040160405180910390fd5b60006020828403121561025f57600080fd5b81516001600160a01b038116811461021d57600080fd5b6000825160005b81811015610297576020818601810151858301520161027d565b506000920191825250919050565b60aa806102b36000396000f3fe6080604052600a600c565b005b60186014601a565b6051565b565b6000604c7f360894a13ba1a3210667c828492db98dca3e2076cc3735a920a3ca505d382bbc546001600160a01b031690565b905090565b3660008037600080366000845af43d6000803e808015606f573d6000f35b3d6000fdfea2646970667358221220c6426f00813ab67faceeed68b05473e123e760ec150df2871dcb485b760e54da64736f6c63430008180033360894a13ba1a3210667c828492db98dca3e2076cc3735a920a3ca505d382bbc68747470733a2f2f6769746875622e636f6d2f63616c61626172612d68712f7472616e736d697373696f6e732fa2646970667358221220d588e6eb95edede762945f479c15d3ec8848cce8fffb38f357ee2a346b93210364736f6c63430008180033","linkReferences":{}},"methodIdentifiers":{"UPGRADE_INTERFACE_VERSION()":"ad3cb1cc","channelImpl()":"eb86614c","contractName()":"75d0c0dc","contractURI()":"e8a3d485","contractVersion()":"a0a8e460","createChannel(string,bytes[])":"aaf95036","deployedChannels(uint256)":"cb817139","initialize(address)":"c4d66de8","owner()":"8da5cb5b","proxiableUUID()":"52d1902d","renounceOwnership()":"715018a6","transferOwnership(address)":"f2fde38b","upgradeToAndCall(address,bytes)":"4f1ef286"},"id":50}