{"abi":[{"type":"function","name":"approveLogic","inputs":[{"name":"signature","type":"bytes4","internalType":"bytes4"},{"name":"calldataAddressPosition","type":"uint256","internalType":"uint256"}],"outputs":[],"stateMutability":"nonpayable"},{"type":"function","name":"isCreatorApproved","inputs":[{"name":"channel","type":"address","internalType":"address"},{"name":"user","type":"address","internalType":"address"}],"outputs":[{"name":"","type":"bool","internalType":"bool"}],"stateMutability":"view"},{"type":"function","name":"isMinterApproved","inputs":[{"name":"channel","type":"address","internalType":"address"},{"name":"user","type":"address","internalType":"address"}],"outputs":[{"name":"","type":"bool","internalType":"bool"}],"stateMutability":"view"},{"type":"function","name":"setCreatorLogic","inputs":[{"name":"channel","type":"address","internalType":"address"},{"name":"data","type":"bytes","internalType":"bytes"}],"outputs":[],"stateMutability":"nonpayable"},{"type":"function","name":"setMinterLogic","inputs":[{"name":"channel","type":"address","internalType":"address"},{"name":"data","type":"bytes","internalType":"bytes"}],"outputs":[],"stateMutability":"nonpayable"}],"bytecode":{"object":"0x608060405234801561001057600080fd5b506111ac806100206000396000f3fe608060405234801561001057600080fd5b50600436106100575760003560e01c806344a6a6ed1461005c578063570c0b68146100b2578063914c3af6146100c5578063b11a4de8146100ec578063fb1f44e4146100ff575b600080fd5b6100b061006a366004610b42565b604080518082018252600180825260208083019485526001600160e01b03199590951660009081526002909552919093209251835460ff19169015151783559051910155565b005b6100b06100c0366004610bf2565b610112565b6100d86100d3366004610c85565b61021c565b604051901515815260200160405180910390f35b6100b06100fa366004610bf2565b610247565b6100d861010d366004610c85565b6102d7565b60008060008060008580602001905181019061012e9190610e9d565b94509450945094509450610141846102f9565b61014e8585858585610399565b6040805160a081018252868152602080820187905281830186905260608201859052608082018490526001600160a01b038a166000908152600182529290922081518051929391926101a3928492019061095f565b5060208281015180516101bc92600185019201906109c4565b50604082015180516101d8916002840191602090910190610a6b565b50606082015180516101f4916003840191602090910190610a6b565b5060808201518051610210916004840191602090910190610a6b565b50505050505050505050565b6001600160a01b038216600090815260016020526040812061023e9083610418565b90505b92915050565b6000806000806000858060200190518101906102639190610e9d565b94509450945094509450610276846102f9565b6102838585858585610399565b6040805160a081018252868152602080820187905281830186905260608201859052608082018490526001600160a01b038a1660009081528082529290922081518051929391926101a3928492019061095f565b6001600160a01b038216600090815260208190526040812061023e9083610418565b60005b8151811015610395576002600083838151811061031b5761031b610f6f565b6020908102919091018101516001600160e01b03191682528101919091526040016000205460ff1661038d5760405162461bcd60e51b815260206004820152601660248201527514da59db985d1d5c99481b9bdd08185c1c1c9bdd995960521b60448201526064015b60405180910390fd5b6001016102fc565b5050565b835185511480156103ab575082518451145b80156103b8575081518351145b80156103c5575080518251145b6104115760405162461bcd60e51b815260206004820181905260248201527f4c6f676963206669656c64206c656e6774687320646f206e6f74206d617463686044820152606401610384565b5050505050565b6000805b835481101561073357600061053a85600201838154811061043f5761043f610f6f565b90600052602060002001805461045490610f85565b80601f016020809104026020016040519081016040528092919081815260200182805461048090610f85565b80156104cd5780601f106104a2576101008083540402835291602001916104cd565b820191906000526020600020905b8154815290600101906020018083116104b057829003601f168201915b5050505050600260008860010186815481106104eb576104eb610f6f565b90600052602060002090600891828204019190066004029054906101000a900460e01b6001600160e01b0319166001600160e01b0319168152602001908152602001600020600101548661073d565b90506000806105ae87600001858154811061055757610557610f6f565b6000918252602090912001546001890180546001600160a01b03909216918790811061058557610585610f6f565b90600052602060002090600891828204019190066004029054906101000a900460e01b856107c3565b91509150600061070d8860030186815481106105cc576105cc610f6f565b9060005260206000200180546105e190610f85565b80601f016020809104026020016040519081016040528092919081815260200182805461060d90610f85565b801561065a5780601f1061062f5761010080835404028352916020019161065a565b820191906000526020600020905b81548152906001019060200180831161063d57829003601f168201915b5050505050838a600401888154811061067557610675610f6f565b90600052602060002001805461068a90610f85565b80601f01602080910402602001604051908101604052809291908181526020018280546106b690610f85565b80156107035780601f106106d857610100808354040283529160200191610703565b820191906000526020600020905b8154815290600101906020018083116106e657829003601f168201915b505050505061084b565b9050801561072357600195505050505050610241565b50506001909201915061041c9050565b5060009392505050565b606061074a836020610fd5565b610755906020610fec565b8451101561079a5760405162461bcd60e51b815260206004820152601260248201527144617461206f7574206f6620626f756e647360701b6044820152606401610384565b60006107a7846020610fd5565b6107b2906020610fec565b8501839052508390505b9392505050565b60006060846001600160a01b031684846040516020016107e4929190610fff565b60408051601f19818403018152908290526107fe91611030565b600060405180830381855afa9150503d8060008114610839576040519150601f19603f3d011682016040523d82523d6000602084013e61083e565b606091505b5091509150935093915050565b6000808480519060200120905060008380602001905181019061086e919061104c565b604051601f60f91b60208201529091506021016040516020818303038152906040528051906020012082036108bc5780858060200190518101906108b2919061104c565b11925050506107bc565b604051600f60fa1b60208201526021016040516020818303038152906040528051906020012082036109075780858060200190518101906108fd919061104c565b10925050506107bc565b604051613d3d60f01b6020820152602201604051602081830303815290604052805190602001208203610953578085806020019051810190610949919061104c565b14925050506107bc565b50600095945050505050565b8280548282559060005260206000209081019282156109b4579160200282015b828111156109b457825182546001600160a01b0319166001600160a01b0390911617825560209092019160019091019061097f565b506109c0929150610abd565b5090565b828054828255906000526020600020906007016008900481019282156109b45791602002820160005b83821115610a2e57835183826101000a81548163ffffffff021916908360e01c021790555092602001926004016020816003010492830192600103026109ed565b8015610a5e5782816101000a81549063ffffffff0219169055600401602081600301049283019260010302610a2e565b50506109c0929150610abd565b828054828255906000526020600020908101928215610ab1579160200282015b82811115610ab15782518290610aa190826110b6565b5091602001919060010190610a8b565b506109c0929150610ad2565b5b808211156109c05760008155600101610abe565b808211156109c0576000610ae68282610aef565b50600101610ad2565b508054610afb90610f85565b6000825580601f10610b0b575050565b601f016020900490600052602060002090810190610b299190610abd565b50565b6001600160e01b031981168114610b2957600080fd5b60008060408385031215610b5557600080fd5b8235610b6081610b2c565b946020939093013593505050565b6001600160a01b0381168114610b2957600080fd5b634e487b7160e01b600052604160045260246000fd5b604051601f8201601f1916810167ffffffffffffffff81118282101715610bc257610bc2610b83565b604052919050565b600067ffffffffffffffff821115610be457610be4610b83565b50601f01601f191660200190565b60008060408385031215610c0557600080fd5b8235610c1081610b6e565b9150602083013567ffffffffffffffff811115610c2c57600080fd5b8301601f81018513610c3d57600080fd5b8035610c50610c4b82610bca565b610b99565b818152866020838501011115610c6557600080fd5b816020840160208301376000602083830101528093505050509250929050565b60008060408385031215610c9857600080fd5b8235610ca381610b6e565b91506020830135610cb381610b6e565b809150509250929050565b600067ffffffffffffffff821115610cd857610cd8610b83565b5060051b60200190565b600082601f830112610cf357600080fd5b81516020610d03610c4b83610cbe565b8083825260208201915060208460051b870101935086841115610d2557600080fd5b602086015b84811015610d4a578051610d3d81610b6e565b8352918301918301610d2a565b509695505050505050565b600082601f830112610d6657600080fd5b81516020610d76610c4b83610cbe565b8083825260208201915060208460051b870101935086841115610d9857600080fd5b602086015b84811015610d4a578051610db081610b2c565b8352918301918301610d9d565b60005b83811015610dd8578181015183820152602001610dc0565b50506000910152565b600082601f830112610df257600080fd5b81516020610e02610c4b83610cbe565b82815260059290921b84018101918181019086841115610e2157600080fd5b8286015b84811015610d4a57805167ffffffffffffffff811115610e455760008081fd5b8701603f81018913610e575760008081fd5b848101516040610e69610c4b83610bca565b8281528b82848601011115610e7e5760008081fd5b610e8d83898301848701610dbd565b8652505050918301918301610e25565b600080600080600060a08688031215610eb557600080fd5b855167ffffffffffffffff80821115610ecd57600080fd5b610ed989838a01610ce2565b96506020880151915080821115610eef57600080fd5b610efb89838a01610d55565b95506040880151915080821115610f1157600080fd5b610f1d89838a01610de1565b94506060880151915080821115610f3357600080fd5b610f3f89838a01610de1565b93506080880151915080821115610f5557600080fd5b50610f6288828901610de1565b9150509295509295909350565b634e487b7160e01b600052603260045260246000fd5b600181811c90821680610f9957607f821691505b602082108103610fb957634e487b7160e01b600052602260045260246000fd5b50919050565b634e487b7160e01b600052601160045260246000fd5b808202811582820484141761024157610241610fbf565b8082018082111561024157610241610fbf565b6001600160e01b0319831681528151600090611022816004850160208701610dbd565b919091016004019392505050565b60008251611042818460208701610dbd565b9190910192915050565b60006020828403121561105e57600080fd5b5051919050565b601f8211156110b1576000816000526020600020601f850160051c8101602086101561108e5750805b601f850160051c820191505b818110156110ad5782815560010161109a565b5050505b505050565b815167ffffffffffffffff8111156110d0576110d0610b83565b6110e4816110de8454610f85565b84611065565b602080601f83116001811461111957600084156111015750858301515b600019600386901b1c1916600185901b1785556110ad565b600085815260208120601f198616915b8281101561114857888601518255948401946001909101908401611129565b50858210156111665787850151600019600388901b60f8161c191681555b5050505050600190811b0190555056fea26469706673582212204c6ba51e99691e6305439675a162c76e24b436b8547ac707500e937120cd56d264736f6c63430008180033","linkReferences":{}},"methodIdentifiers":{"approveLogic(bytes4,uint256)":"44a6a6ed","isCreatorApproved(address,address)":"fb1f44e4","isMinterApproved(address,address)":"914c3af6","setCreatorLogic(address,bytes)":"b11a4de8","setMinterLogic(address,bytes)":"570c0b68"},"id":47}