{"abi":[{"type":"function","name":"contractVersion","inputs":[],"outputs":[{"name":"","type":"string","internalType":"string"}],"stateMutability":"pure"}],"bytecode":{"object":"0x608060405234801561001057600080fd5b5060de8061001f6000396000f3fe6080604052348015600f57600080fd5b506004361060285760003560e01c8063a0a8e46014602d575b600080fd5b60408051808201825260058152640312e302e360dc1b6020820152905160529190605b565b60405180910390f35b60006020808352835180602085015260005b81811015608757858101830151858201604001528201606d565b506000604082860101526040601f19601f830116850101925050509291505056fea26469706673582212205ed8b8004e7aeb026f4448432e5ca2e6b255e1f9c1a6c4361980b2284a38a39b64736f6c63430008180033","linkReferences":{}},"methodIdentifiers":{"contractVersion()":"a0a8e460"},"id":60}