{"abi":[{"type":"function","name":"customFees","inputs":[{"name":"","type":"address","internalType":"address"}],"outputs":[{"name":"channelTreasury","type":"address","internalType":"address"},{"name":"uplinkFee","type":"uint256","internalType":"uint256"},{"name":"channelFee","type":"uint256","internalType":"uint256"},{"name":"creatorFee","type":"uint256","internalType":"uint256"},{"name":"mintReferralFee","type":"uint256","internalType":"uint256"},{"name":"firstMinterFee","type":"uint256","internalType":"uint256"}],"stateMutability":"view"},{"type":"function","name":"generateFeeCommands","inputs":[{"name":"creator","type":"address","internalType":"address"},{"name":"referral","type":"address","internalType":"address"},{"name":"firstMinter","type":"address","internalType":"address"}],"outputs":[],"stateMutability":"nonpayable"},{"type":"function","name":"getChannelFeeConfig","inputs":[],"outputs":[{"name":"","type":"uint256","internalType":"uint256"},{"name":"","type":"uint256","internalType":"uint256"},{"name":"","type":"uint256","internalType":"uint256"},{"name":"","type":"uint256","internalType":"uint256"},{"name":"","type":"uint256","internalType":"uint256"}],"stateMutability":"view"},{"type":"function","name":"getMintPrice","inputs":[],"outputs":[{"name":"","type":"uint256","internalType":"uint256"}],"stateMutability":"view"},{"type":"function","name":"setChannelFeeConfig","inputs":[{"name":"data","type":"bytes","internalType":"bytes"}],"outputs":[],"stateMutability":"nonpayable"}],"bytecode":{"object":"0x608060405234801561001057600080fd5b50610486806100206000396000f3fe608060405234801561001057600080fd5b50600436106100575760003560e01c80631ad987001461005c5780632c67be371461007157806376d27538146100fa578063a7f93ebd1461018b578063f57f1064146101a1575b600080fd5b61006f61006a3660046102fc565b505050565b005b6100be61007f366004610347565b6000602081905290815260409020805460018201546002830154600384015460048501546005909501546001600160a01b039094169492939192909186565b604080516001600160a01b0390971687526020870195909552938501929092526060840152608083015260a082015260c0015b60405180910390f35b6101633360009081526020818152604091829020825160c08101845281546001600160a01b031681526001820154928101839052600282015493810184905260038201546060820181905260048301546080830181905260059093015460a09092018290529294565b604080519586526020860194909452928401919091526060830152608082015260a0016100f1565b6101936101b4565b6040519081526020016100f1565b61006f6101af36600461036b565b610248565b33600090815260208181526040808320815160c08101835281546001600160a01b031681526001820154938101849052600282015492810183905260038201546060820181905260048301546080830181905260059093015460a0830181905291949193909161022491906103dd565b61022e91906103dd565b61023891906103dd565b61024291906103dd565b91505090565b6000808080808061025b87890189610404565b6040805160c0810182526001600160a01b0397881681526020808201978852818301968752606082019586526080820194855260a082019384523360009081529081905291909120905181546001600160a01b03191697169690961786559351600186015591516002850155516003840155516004830155516005909101555050505050505050565b6001600160a01b03811681146102f957600080fd5b50565b60008060006060848603121561031157600080fd5b833561031c816102e4565b9250602084013561032c816102e4565b9150604084013561033c816102e4565b809150509250925092565b60006020828403121561035957600080fd5b8135610364816102e4565b9392505050565b6000806020838503121561037e57600080fd5b823567ffffffffffffffff8082111561039657600080fd5b818501915085601f8301126103aa57600080fd5b8135818111156103b957600080fd5b8660208285010111156103cb57600080fd5b60209290920196919550909350505050565b808201808211156103fe57634e487b7160e01b600052601160045260246000fd5b92915050565b60008060008060008060c0878903121561041d57600080fd5b8635610428816102e4565b9860208801359850604088013597606081013597506080810135965060a0013594509250505056fea26469706673582212208443a39ccf1c96ada75383cf21e7405471c78f3de0957081065a2d580b5fb13964736f6c63430008180033","linkReferences":{}},"methodIdentifiers":{"customFees(address)":"2c67be37","generateFeeCommands(address,address,address)":"1ad98700","getChannelFeeConfig()":"76d27538","getMintPrice()":"a7f93ebd","setChannelFeeConfig(bytes)":"f57f1064"},"id":53}