{"abi":[{"type":"function","name":"nextTokenId","inputs":[],"outputs":[{"name":"","type":"uint256","internalType":"uint256"}],"stateMutability":"view"}],"bytecode":{"object":"0x6080604052348015600f57600080fd5b50607d8061001e6000396000f3fe6080604052348015600f57600080fd5b506004361060285760003560e01c806375794a3c14602d575b600080fd5b603560015481565b60405190815260200160405180910390f3fea26469706673582212207bd0655ea61d81acd75a79f00cc286db70b3f22095acacdd9768ace0a9036a0464736f6c63430008180033","linkReferences":{}},"methodIdentifiers":{"nextTokenId()":"75794a3c"},"id":42}