{"abi":[{"type":"constructor","inputs":[{"name":"_canUpgrade","type":"address","internalType":"address"}],"stateMutability":"nonpayable"},{"type":"function","name":"UPGRADE_INTERFACE_VERSION","inputs":[],"outputs":[{"name":"","type":"string","internalType":"string"}],"stateMutability":"view"},{"type":"function","name":"proxiableUUID","inputs":[],"outputs":[{"name":"","type":"bytes32","internalType":"bytes32"}],"stateMutability":"view"},{"type":"function","name":"upgradeToAndCall","inputs":[{"name":"newImplementation","type":"address","internalType":"address"},{"name":"data","type":"bytes","internalType":"bytes"}],"outputs":[],"stateMutability":"payable"},{"type":"event","name":"Upgraded","inputs":[{"name":"implementation","type":"address","indexed":true,"internalType":"address"}],"anonymous":false},{"type":"error","name":"AddressEmptyCode","inputs":[{"name":"target","type":"address","internalType":"address"}]},{"type":"error","name":"ERC1967InvalidImplementation","inputs":[{"name":"implementation","type":"address","internalType":"address"}]},{"type":"error","name":"ERC1967NonPayable","inputs":[]},{"type":"error","name":"FailedInnerCall","inputs":[]},{"type":"error","name":"UUPSUnauthorizedCallContext","inputs":[]},{"type":"error","name":"UUPSUnsupportedProxiableUUID","inputs":[{"name":"slot","type":"bytes32","internalType":"bytes32"}]}],"bytecode":{"object":"0x60c060405230608052348015601357600080fd5b506040516107533803806107538339810160408190526030916040565b6001600160a01b031660a052606e565b600060208284031215605157600080fd5b81516001600160a01b0381168114606757600080fd5b9392505050565b60805160a0516106b36100a060003960006101a201526000818160fb0152818161012401526102d501526106b36000f3fe6080604052600436106100345760003560e01c80634f1ef2861461003957806352d1902d1461004e578063ad3cb1cc14610076575b600080fd5b61004c610047366004610501565b6100b4565b005b34801561005a57600080fd5b506100636100d3565b6040519081526020015b60405180910390f35b34801561008257600080fd5b506100a7604051806040016040528060058152602001640352e302e360dc1b81525081565b60405161006d91906105f5565b6100bc6100f0565b6100c582610197565b6100cf8282610208565b5050565b60006100dd6102ca565b5060008051602061065e83398151915290565b306001600160a01b037f000000000000000000000000000000000000000000000000000000000000000016148061017757507f00000000000000000000000000000000000000000000000000000000000000006001600160a01b031661016b60008051602061065e833981519152546001600160a01b031690565b6001600160a01b031614155b156101955760405163703e46dd60e11b815260040160405180910390fd5b565b336001600160a01b037f000000000000000000000000000000000000000000000000000000000000000016146102055760405162461bcd60e51b815260206004820152600e60248201526d1b9bdd08185d5d1a1bdc9a5e995960921b60448201526064015b60405180910390fd5b50565b816001600160a01b03166352d1902d6040518163ffffffff1660e01b8152600401602060405180830381865afa925050508015610262575060408051601f3d908101601f1916820190925261025f91810190610628565b60015b61028a57604051634c9c8ce360e01b81526001600160a01b03831660048201526024016101fc565b60008051602061065e83398151915281146102bb57604051632a87526960e21b8152600481018290526024016101fc565b6102c58383610313565b505050565b306001600160a01b037f000000000000000000000000000000000000000000000000000000000000000016146101955760405163703e46dd60e11b815260040160405180910390fd5b61031c82610369565b6040516001600160a01b038316907fbc7cd75a20ee27fd9adebab32041f755214dbc6bffa90cc0225b39da2e5c2d3b90600090a2805115610361576102c582826103ce565b6100cf610444565b806001600160a01b03163b60000361039f57604051634c9c8ce360e01b81526001600160a01b03821660048201526024016101fc565b60008051602061065e83398151915280546001600160a01b0319166001600160a01b0392909216919091179055565b6060600080846001600160a01b0316846040516103eb9190610641565b600060405180830381855af49150503d8060008114610426576040519150601f19603f3d011682016040523d82523d6000602084013e61042b565b606091505b509150915061043b858383610463565b95945050505050565b34156101955760405163b398979f60e01b815260040160405180910390fd5b60608261047857610473826104c2565b6104bb565b815115801561048f57506001600160a01b0384163b155b156104b857604051639996b31560e01b81526001600160a01b03851660048201526024016101fc565b50805b9392505050565b8051156104d25780518082602001fd5b604051630a12f52160e11b815260040160405180910390fd5b634e487b7160e01b600052604160045260246000fd5b6000806040838503121561051457600080fd5b82356001600160a01b038116811461052b57600080fd5b9150602083013567ffffffffffffffff8082111561054857600080fd5b818501915085601f83011261055c57600080fd5b81358181111561056e5761056e6104eb565b604051601f8201601f19908116603f01168101908382118183101715610596576105966104eb565b816040528281528860208487010111156105af57600080fd5b8260208601602083013760006020848301015280955050505050509250929050565b60005b838110156105ec5781810151838201526020016105d4565b50506000910152565b60208152600082518060208401526106148160408501602087016105d1565b601f01601f19169190910160400192915050565b60006020828403121561063a57600080fd5b5051919050565b600082516106538184602087016105d1565b919091019291505056fe360894a13ba1a3210667c828492db98dca3e2076cc3735a920a3ca505d382bbca2646970667358221220f249bf2ac701034287be18e9e49278492e4acc35ed30f6daee056d885941a86a64736f6c63430008190033","linkReferences":{}},"methodIdentifiers":{"UPGRADE_INTERFACE_VERSION()":"ad3cb1cc","proxiableUUID()":"52d1902d","upgradeToAndCall(address,bytes)":"4f1ef286"},"id":60}