{"abi":[{"type":"function","name":"CONTRACT_BASE_ID","inputs":[],"outputs":[{"name":"","type":"uint256","internalType":"uint256"}],"stateMutability":"view"}],"bytecode":{"object":"0x6080604052348015600f57600080fd5b50607c8061001e6000396000f3fe6080604052348015600f57600080fd5b506004361060285760003560e01c80630114420114602d575b600080fd5b6034600081565b60405190815260200160405180910390f3fea26469706673582212204543597e85765066ea10c137f81188915472415e79cd4d1000c880c469a7403d64736f6c63430008180033","linkReferences":{}},"methodIdentifiers":{"CONTRACT_BASE_ID()":"01144201"},"id":56}