{"abi":[{"type":"function","name":"balanceOf","inputs":[{"name":"account","type":"address","internalType":"address"}],"outputs":[{"name":"","type":"uint256","internalType":"uint256"}],"stateMutability":"view"},{"type":"function","name":"deposit","inputs":[{"name":"rx","type":"address","internalType":"address"},{"name":"amount","type":"uint256","internalType":"uint256"}],"outputs":[],"stateMutability":"payable"},{"type":"function","name":"ethBalances","inputs":[{"name":"","type":"address","internalType":"address"}],"outputs":[{"name":"","type":"uint256","internalType":"uint256"}],"stateMutability":"view"},{"type":"function","name":"withdraw","inputs":[{"name":"_amount","type":"uint256","internalType":"uint256"}],"outputs":[],"stateMutability":"nonpayable"}],"bytecode":{"object":"0x608060405234801561001057600080fd5b506102e4806100206000396000f3fe60806040526004361061003f5760003560e01c80632e1a7d4d146100445780633cfba0e31461006657806347e7ef24146100a557806370a08231146100b8575b600080fd5b34801561005057600080fd5b5061006461005f3660046101eb565b6100ee565b005b34801561007257600080fd5b50610093610081366004610220565b60006020819052908152604090205481565b60405190815260200160405180910390f35b6100646100b3366004610242565b6101ba565b3480156100c457600080fd5b506100936100d3366004610220565b6001600160a01b031660009081526020819052604090205490565b80600081900361010a5750336000908152602081905260409020545b336000908152602081905260409020548111156101645760405162461bcd60e51b8152602060048201526014602482015273496e73756666696369656e742062616c616e636560601b604482015260640160405180910390fd5b3360009081526020819052604081208054839290610183908490610282565b9091555050604051339082156108fc029083906000818181858888f193505050501580156101b5573d6000803e3d6000fd5b505050565b6001600160a01b038216600090815260208190526040812080548392906101e290849061029b565b90915550505050565b6000602082840312156101fd57600080fd5b5035919050565b80356001600160a01b038116811461021b57600080fd5b919050565b60006020828403121561023257600080fd5b61023b82610204565b9392505050565b6000806040838503121561025557600080fd5b61025e83610204565b946020939093013593505050565b634e487b7160e01b600052601160045260246000fd5b818103818111156102955761029561026c565b92915050565b808201808211156102955761029561026c56fea2646970667358221220852470e6347d68d54021e098fe2821ec8b4d07af0ef44ae6f566f2420187c39c64736f6c63430008180033","linkReferences":{}},"methodIdentifiers":{"balanceOf(address)":"70a08231","deposit(address,uint256)":"47e7ef24","ethBalances(address)":"3cfba0e3","withdraw(uint256)":"2e1a7d4d"},"id":46}