{"abi":[{"type":"function","name":"deployedChannels","inputs":[{"name":"","type":"uint256","internalType":"uint256"}],"outputs":[{"name":"","type":"address","internalType":"address"}],"stateMutability":"view"}],"bytecode":{"object":"0x6080604052348015600f57600080fd5b5060cf80601d6000396000f3fe6080604052348015600f57600080fd5b506004361060285760003560e01c8063cb81713914602d575b600080fd5b603c60383660046081565b6058565b6040516001600160a01b03909116815260200160405180910390f35b60008181548110606757600080fd5b6000918252602090912001546001600160a01b0316905081565b600060208284031215609257600080fd5b503591905056fea264697066735822122086eb2059d7eec4361a75a2b3050736547b2bfbc6650809009f04d0ed3b2b3bbe64736f6c63430008190033","linkReferences":{}},"methodIdentifiers":{"deployedChannels(uint256)":"cb817139"},"id":46}