{"abi":[{"type":"function","name":"execute2","inputs":[{"name":"target","type":"address","internalType":"address"},{"name":"signature","type":"bytes4","internalType":"bytes4"},{"name":"data","type":"bytes","internalType":"bytes"}],"outputs":[{"name":"","type":"bytes","internalType":"bytes"}],"stateMutability":"view"},{"type":"function","name":"executeLogic","inputs":[{"name":"channel","type":"address","internalType":"address"}],"outputs":[{"name":"","type":"bool","internalType":"bool"}],"stateMutability":"view"},{"type":"function","name":"setCreatorLogic","inputs":[{"name":"channel","type":"address","internalType":"address"},{"name":"data","type":"bytes","internalType":"bytes"}],"outputs":[],"stateMutability":"nonpayable"}],"bytecode":{"object":"0x608060405234801561001057600080fd5b50610e2f806100206000396000f3fe608060405234801561001057600080fd5b50600436106100415760003560e01c8063379d439a14610046578063b11a4de81461006e578063e54caa4514610083575b600080fd5b61005961005436600461073c565b6100a3565b60405190151581526020015b60405180910390f35b61008161007c36600461081e565b6100ca565b005b610096610091366004610884565b6101a9565b6040516100659190610936565b6001600160a01b03811660009081526020819052604081206100c490610274565b92915050565b600080600080848060200190518101906100e49190610aa5565b9350935093509350604051806080016040528085815260200184815260200183815260200182815250600080886001600160a01b03166001600160a01b03168152602001908152602001600020600082015181600001908051906020019061014d92919061055a565b50602082810151805161016692600185019201906105bf565b5060408201518051610182916002840191602090910190610666565b506060820151805161019e916003840191602090910190610666565b505050505050505050565b6060600080856001600160a01b031685856040516020016101cb929190610bb3565b60408051601f19818403018152908290526101e591610be4565b600060405180830381855afa9150503d8060008114610220576040519150601f19603f3d011682016040523d82523d6000602084013e610225565b606091505b5091509150816102695760405162461bcd60e51b815260206004820152600b60248201526a10d85b1b0819985a5b195960aa1b604482015260640160405180910390fd5b9150505b9392505050565b6000805b82548110156104ab5760006104516103a461039f8660000185815481106102a1576102a1610c00565b6000918252602090912001546001880180546001600160a01b0390921691879081106102cf576102cf610c00565b90600052602060002090600891828204019190066004029054906101000a900460e01b88600201878154811061030757610307610c00565b90600052602060002001805461031c90610c16565b80601f016020809104026020016040519081016040528092919081815260200182805461034890610c16565b80156103955780601f1061036a57610100808354040283529160200191610395565b820191906000526020600020905b81548152906001019060200180831161037857829003601f168201915b50505050506101a9565b6104b4565b8560030184815481106103b9576103b9610c00565b9060005260206000200180546103ce90610c16565b80601f01602080910402602001604051908101604052809291908181526020018280546103fa90610c16565b80156104475780601f1061041c57610100808354040283529160200191610447565b820191906000526020600020905b81548152906001019060200180831161042a57829003601f168201915b50505050506104ca565b90506104926040518060400160405280601e81526020017f726573756c74206166746572206170706c79696e672076657269666965720000815250826104f0565b80156104a2575060019392505050565b50600101610278565b50600092915050565b6000818060200190518101906100c49190610c50565b6000806000838060200190518101906104e39190610c69565b5060009695505050505050565b6105358282604051602401610506929190610cc4565b60408051601f198184030181529190526020810180516001600160e01b031663c3b5563560e01b179052610539565b5050565b80516a636f6e736f6c652e6c6f67602083016000808483855afa5050505050565b8280548282559060005260206000209081019282156105af579160200282015b828111156105af57825182546001600160a01b0319166001600160a01b0390911617825560209092019160019091019061057a565b506105bb9291506106b8565b5090565b828054828255906000526020600020906007016008900481019282156105af5791602002820160005b8382111561062957835183826101000a81548163ffffffff021916908360e01c021790555092602001926004016020816003010492830192600103026105e8565b80156106595782816101000a81549063ffffffff0219169055600401602081600301049283019260010302610629565b50506105bb9291506106b8565b8280548282559060005260206000209081019282156106ac579160200282015b828111156106ac578251829061069c9082610d39565b5091602001919060010190610686565b506105bb9291506106cd565b5b808211156105bb57600081556001016106b9565b808211156105bb5760006106e182826106ea565b506001016106cd565b5080546106f690610c16565b6000825580601f10610706575050565b601f01602090049060005260206000209081019061072491906106b8565b50565b6001600160a01b038116811461072457600080fd5b60006020828403121561074e57600080fd5b813561026d81610727565b634e487b7160e01b600052604160045260246000fd5b604051601f8201601f1916810167ffffffffffffffff8111828210171561079857610798610759565b604052919050565b600067ffffffffffffffff8211156107ba576107ba610759565b50601f01601f191660200190565b600082601f8301126107d957600080fd5b81356107ec6107e7826107a0565b61076f565b81815284602083860101111561080157600080fd5b816020850160208301376000918101602001919091529392505050565b6000806040838503121561083157600080fd5b823561083c81610727565b9150602083013567ffffffffffffffff81111561085857600080fd5b610864858286016107c8565b9150509250929050565b6001600160e01b03198116811461072457600080fd5b60008060006060848603121561089957600080fd5b83356108a481610727565b925060208401356108b48161086e565b9150604084013567ffffffffffffffff8111156108d057600080fd5b6108dc868287016107c8565b9150509250925092565b60005b838110156109015781810151838201526020016108e9565b50506000910152565b600081518084526109228160208601602086016108e6565b601f01601f19169290920160200192915050565b60208152600061026d602083018461090a565b600067ffffffffffffffff82111561096357610963610759565b5060051b60200190565b600082601f83011261097e57600080fd5b8151602061098e6107e783610949565b8083825260208201915060208460051b8701019350868411156109b057600080fd5b602086015b848110156109d55780516109c88161086e565b83529183019183016109b5565b509695505050505050565b60006109ee6107e7846107a0565b9050828152838383011115610a0257600080fd5b61026d8360208301846108e6565b600082601f830112610a2157600080fd5b81516020610a316107e783610949565b82815260059290921b84018101918181019086841115610a5057600080fd5b8286015b848110156109d557805167ffffffffffffffff811115610a745760008081fd5b8701603f81018913610a865760008081fd5b610a978986830151604084016109e0565b845250918301918301610a54565b60008060008060808587031215610abb57600080fd5b845167ffffffffffffffff80821115610ad357600080fd5b818701915087601f830112610ae757600080fd5b81516020610af76107e783610949565b82815260059290921b8401810191818101908b841115610b1657600080fd5b948201945b83861015610b3d578551610b2e81610727565b82529482019490820190610b1b565b918a0151919850909350505080821115610b5657600080fd5b610b628883890161096d565b94506040870151915080821115610b7857600080fd5b610b8488838901610a10565b93506060870151915080821115610b9a57600080fd5b50610ba787828801610a10565b91505092959194509250565b6001600160e01b0319831681528151600090610bd68160048501602087016108e6565b919091016004019392505050565b60008251610bf68184602087016108e6565b9190910192915050565b634e487b7160e01b600052603260045260246000fd5b600181811c90821680610c2a57607f821691505b602082108103610c4a57634e487b7160e01b600052602260045260246000fd5b50919050565b600060208284031215610c6257600080fd5b5051919050565b60008060408385031215610c7c57600080fd5b825167ffffffffffffffff811115610c9357600080fd5b8301601f81018513610ca457600080fd5b610cb3858251602084016109e0565b925050602083015190509250929050565b604081526000610cd7604083018561090a565b905082151560208301529392505050565b601f821115610d34576000816000526020600020601f850160051c81016020861015610d115750805b601f850160051c820191505b81811015610d3057828155600101610d1d565b5050505b505050565b815167ffffffffffffffff811115610d5357610d53610759565b610d6781610d618454610c16565b84610ce8565b602080601f831160018114610d9c5760008415610d845750858301515b600019600386901b1c1916600185901b178555610d30565b600085815260208120601f198616915b82811015610dcb57888601518255948401946001909101908401610dac565b5085821015610de95787850151600019600388901b60f8161c191681555b5050505050600190811b0190555056fea26469706673582212200ac515e0e9ab9a30f2d9a34339ebe21449d0fa09ee0a154518d06634d62e4eb064736f6c63430008180033","linkReferences":{}},"methodIdentifiers":{"execute2(address,bytes4,bytes)":"e54caa45","executeLogic(address)":"379d439a","setCreatorLogic(address,bytes)":"b11a4de8"},"id":47}