{"abi":[{"type":"constructor","inputs":[{"name":"_platformRecipient","type":"address","internalType":"address"}],"stateMutability":"nonpayable"},{"type":"function","name":"CONTRACT_BASE_ID","inputs":[],"outputs":[{"name":"","type":"uint256","internalType":"uint256"}],"stateMutability":"view"},{"type":"function","name":"UPGRADE_INTERFACE_VERSION","inputs":[],"outputs":[{"name":"","type":"string","internalType":"string"}],"stateMutability":"view"},{"type":"function","name":"balanceOf","inputs":[{"name":"account","type":"address","internalType":"address"}],"outputs":[{"name":"","type":"uint256","internalType":"uint256"}],"stateMutability":"view"},{"type":"function","name":"createToken","inputs":[{"name":"uri","type":"string","internalType":"string"},{"name":"author","type":"address","internalType":"address"},{"name":"maxSupply","type":"uint256","internalType":"uint256"},{"name":"saleContract","type":"address","internalType":"contract ISales"},{"name":"saleArgs","type":"bytes","internalType":"bytes"}],"outputs":[{"name":"","type":"uint256","internalType":"uint256"}],"stateMutability":"nonpayable"},{"type":"function","name":"deposit","inputs":[{"name":"rx","type":"address","internalType":"address"},{"name":"amount","type":"uint256","internalType":"uint256"}],"outputs":[],"stateMutability":"payable"},{"type":"function","name":"ethBalances","inputs":[{"name":"","type":"address","internalType":"address"}],"outputs":[{"name":"","type":"uint256","internalType":"uint256"}],"stateMutability":"view"},{"type":"function","name":"getTokens","inputs":[{"name":"tokenId","type":"uint256","internalType":"uint256"}],"outputs":[{"name":"","type":"tuple","internalType":"struct IChannelTypesV1.TokenConfig","components":[{"name":"uri","type":"string","internalType":"string"},{"name":"maxSupply","type":"uint256","internalType":"uint256"},{"name":"totalMinted","type":"uint256","internalType":"uint256"}]}],"stateMutability":"view"},{"type":"function","name":"handleCreateSale","inputs":[{"name":"saleArgs","type":"bytes","internalType":"bytes"}],"outputs":[],"stateMutability":"nonpayable"},{"type":"function","name":"initialize","inputs":[{"name":"uri","type":"string","internalType":"string"},{"name":"setupActions","type":"bytes[]","internalType":"bytes[]"}],"outputs":[],"stateMutability":"nonpayable"},{"type":"function","name":"initializeSaleStrategy","inputs":[{"name":"channelTreasury","type":"address","internalType":"address"},{"name":"uplinkFee","type":"uint256","internalType":"uint256"},{"name":"channelFee","type":"uint256","internalType":"uint256"},{"name":"creatorFee","type":"uint256","internalType":"uint256"},{"name":"mintReferralFee","type":"uint256","internalType":"uint256"},{"name":"firstMinterFee","type":"uint256","internalType":"uint256"}],"outputs":[],"stateMutability":"nonpayable"},{"type":"function","name":"multicall","inputs":[{"name":"data","type":"bytes[]","internalType":"bytes[]"}],"outputs":[{"name":"results","type":"bytes[]","internalType":"bytes[]"}],"stateMutability":"nonpayable"},{"type":"function","name":"nextTokenId","inputs":[],"outputs":[{"name":"","type":"uint256","internalType":"uint256"}],"stateMutability":"view"},{"type":"function","name":"proxiableUUID","inputs":[],"outputs":[{"name":"","type":"bytes32","internalType":"bytes32"}],"stateMutability":"view"},{"type":"function","name":"upgradeToAndCall","inputs":[{"name":"newImplementation","type":"address","internalType":"address"},{"name":"data","type":"bytes","internalType":"bytes"}],"outputs":[],"stateMutability":"payable"},{"type":"function","name":"withdraw","inputs":[{"name":"_amount","type":"uint256","internalType":"uint256"}],"outputs":[],"stateMutability":"nonpayable"},{"type":"event","name":"Initialized","inputs":[{"name":"version","type":"uint64","indexed":false,"internalType":"uint64"}],"anonymous":false},{"type":"event","name":"Upgraded","inputs":[{"name":"implementation","type":"address","indexed":true,"internalType":"address"}],"anonymous":false},{"type":"error","name":"AddressEmptyCode","inputs":[{"name":"target","type":"address","internalType":"address"}]},{"type":"error","name":"ERC1967InvalidImplementation","inputs":[{"name":"implementation","type":"address","internalType":"address"}]},{"type":"error","name":"ERC1967NonPayable","inputs":[]},{"type":"error","name":"FailedInnerCall","inputs":[]},{"type":"error","name":"InvalidInitialization","inputs":[]},{"type":"error","name":"NotInitializing","inputs":[]},{"type":"error","name":"UUPSUnauthorizedCallContext","inputs":[]},{"type":"error","name":"UUPSUnsupportedProxiableUUID","inputs":[{"name":"slot","type":"bytes32","internalType":"bytes32"}]}],"bytecode":{"object":"0x60a06040523060805234801561001457600080fd5b506040516116a33803806116a38339810160408190526100339161015f565b7ff0c57e16840df040f15088dc2f81fe391c3923bec73e23a9662efc9c229c6a00805468010000000000000000810460ff1615906001600160401b031660008115801561007d5750825b90506000826001600160401b031660011480156100995750303b155b9050811580156100a7575080155b156100c55760405163f92ee8a960e01b815260040160405180910390fd5b84546001600160401b031916600117855583156100f357845460ff60401b1916680100000000000000001785555b600280546001600160a01b0319166001600160a01b038816179055831561015457845460ff60401b19168555604051600181527fc7f505b2f371ae2175ee4913f4499e1f2633a7b5936321eed1cdaeb6115181d29060200160405180910390a15b50505050505061018f565b60006020828403121561017157600080fd5b81516001600160a01b038116811461018857600080fd5b9392505050565b6080516114eb6101b860003960008181610983015281816109ac0152610aea01526114eb6000f3fe6080604052600436106100e85760003560e01c8063561298091161008a578063ac9650d811610059578063ac9650d81461024b578063ad3cb1cc14610278578063c6b757ad146102b6578063d3c9cc26146102d657600080fd5b806356129809146101bf57806370a08231146101df57806375794a3c1461021557806389416a081461022b57600080fd5b80633cfba0e3116100c65780633cfba0e31461015757806347e7ef24146101845780634f1ef2861461019757806352d1902d146101aa57600080fd5b806301144201146100ed5780632e1a7d4d14610115578063365b5fa414610137575b600080fd5b3480156100f957600080fd5b50610102600081565b6040519081526020015b60405180910390f35b34801561012157600080fd5b50610135610130366004610d53565b610303565b005b34801561014357600080fd5b50610102610152366004610dca565b6103d0565b34801561016357600080fd5b50610102610172366004610e6d565b60036020526000908152604090205481565b610135610192366004610e8a565b6104c9565b6101356101a5366004610ecc565b6104fa565b3480156101b657600080fd5b50610102610510565b3480156101cb57600080fd5b506101356101da366004610f90565b61052d565b3480156101eb57600080fd5b506101026101fa366004610e6d565b6001600160a01b031660009081526003602052604090205490565b34801561022157600080fd5b5061010260015481565b34801561023757600080fd5b50610135610246366004611021565b6105eb565b34801561025757600080fd5b5061026b61026636600461108d565b61070f565b60405161010c919061111f565b34801561028457600080fd5b506102a9604051806040016040528060058152602001640352e302e360dc1b81525081565b60405161010c9190611183565b3480156102c257600080fd5b506101356102d1366004611196565b6107f9565b3480156102e257600080fd5b506102f66102f1366004610d53565b61088f565b60405161010c91906111cc565b80600081900361031f5750336000908152600360205260409020545b3360009081526003602052604090205481111561037a5760405162461bcd60e51b8152602060048201526014602482015273496e73756666696369656e742062616c616e636560601b60448201526064015b60405180910390fd5b336000908152600360205260408120805483929061039990849061121e565b9091555050604051339082156108fc029083906000818181858888f193505050501580156103cb573d6000803e3d6000fd5b505050565b60008060019050600060405180606001604052808b8b8080601f016020809104026020016040519081016040528093929190818152602001838380828437600092018290525093855250505060208083018b905260409283018290528582528190522081519192508291819061044690826112bb565b50602082015160018201556040918201516002909101555163c6b757ad60e01b81526001600160a01b0387169063c6b757ad90610489908890889060040161137b565b600060405180830381600087803b1580156104a357600080fd5b505af11580156104b7573d6000803e3d6000fd5b50939c9b505050505050505050505050565b6001600160a01b038216600090815260036020526040812080548392906104f19084906113aa565b90915550505050565b610502610978565b61050c8282610a22565b5050565b600061051a610adf565b5060008051602061149683398151915290565b61056f6040518060c0016040528060006001600160a01b0316815260200160008152602001600081526020016000815260200160008152602001600081525090565b6001600160a01b03968716815260208082019687526040808301968752606083019586526080830194855260a0830193845233600090815260049283905220915182546001600160a01b031916981697909717815594516001860155925160028501559051600384015551928201929092559051600590910155565b7ff0c57e16840df040f15088dc2f81fe391c3923bec73e23a9662efc9c229c6a008054600160401b810460ff16159067ffffffffffffffff166000811580156106315750825b905060008267ffffffffffffffff16600114801561064e5750303b155b90508115801561065c575080155b1561067a5760405163f92ee8a960e01b815260040160405180910390fd5b845467ffffffffffffffff1916600117855583156106a457845460ff60401b1916600160401b1785555b6106ac610b28565b85156106be576106bc878761070f565b505b831561070457845460ff60401b19168555604051600181527fc7f505b2f371ae2175ee4913f4499e1f2633a7b5936321eed1cdaeb6115181d29060200160405180910390a15b505050505050505050565b60608167ffffffffffffffff81111561072a5761072a610eb6565b60405190808252806020026020018201604052801561075d57816020015b60608152602001906001900390816107485790505b50905060005b828110156107f2576107cd30858584818110610781576107816113bd565b905060200281019061079391906113d3565b8080601f016020809104026020016040519081016040528093929190818152602001838380828437600092019190915250610b3092505050565b8282815181106107df576107df6113bd565b6020908102919091010152600101610763565b5092915050565b600080808061080a8587018761141a565b6040805160808101825292835260208084019283526001600160a01b039586168483019081529486166060850190815233600090815260058352838120818052909252919020925183559051600183015591516002820180549185166001600160a01b0319928316179055915160039091018054919093169116179055505050505050565b6108b360405180606001604052806060815260200160008152602001600081525090565b600082815260208190526040908190208151606081019092528054829082906108db90611231565b80601f016020809104026020016040519081016040528092919081815260200182805461090790611231565b80156109545780601f1061092957610100808354040283529160200191610954565b820191906000526020600020905b81548152906001019060200180831161093757829003601f168201915b50505050508152602001600182015481526020016002820154815250509050919050565b306001600160a01b037f00000000000000000000000000000000000000000000000000000000000000001614806109ff57507f00000000000000000000000000000000000000000000000000000000000000006001600160a01b03166109f3600080516020611496833981519152546001600160a01b031690565b6001600160a01b031614155b15610a1d5760405163703e46dd60e11b815260040160405180910390fd5b565b50565b816001600160a01b03166352d1902d6040518163ffffffff1660e01b8152600401602060405180830381865afa925050508015610a7c575060408051601f3d908101601f19168201909252610a7991810190611460565b60015b610aa457604051634c9c8ce360e01b81526001600160a01b0383166004820152602401610371565b6000805160206114968339815191528114610ad557604051632a87526960e21b815260048101829052602401610371565b6103cb8383610ba8565b306001600160a01b037f00000000000000000000000000000000000000000000000000000000000000001614610a1d5760405163703e46dd60e11b815260040160405180910390fd5b610a1d610bfe565b6060600080846001600160a01b031684604051610b4d9190611479565b600060405180830381855af49150503d8060008114610b88576040519150601f19603f3d011682016040523d82523d6000602084013e610b8d565b606091505b5091509150610b9d858383610c47565b925050505b92915050565b610bb182610ca6565b6040516001600160a01b038316907fbc7cd75a20ee27fd9adebab32041f755214dbc6bffa90cc0225b39da2e5c2d3b90600090a2805115610bf6576103cb8282610b30565b61050c610d0b565b7ff0c57e16840df040f15088dc2f81fe391c3923bec73e23a9662efc9c229c6a0054600160401b900460ff16610a1d57604051631afcd79f60e31b815260040160405180910390fd5b606082610c5c57610c5782610d2a565b610c9f565b8151158015610c7357506001600160a01b0384163b155b15610c9c57604051639996b31560e01b81526001600160a01b0385166004820152602401610371565b50805b9392505050565b806001600160a01b03163b600003610cdc57604051634c9c8ce360e01b81526001600160a01b0382166004820152602401610371565b60008051602061149683398151915280546001600160a01b0319166001600160a01b0392909216919091179055565b3415610a1d5760405163b398979f60e01b815260040160405180910390fd5b805115610d3a5780518082602001fd5b604051630a12f52160e11b815260040160405180910390fd5b600060208284031215610d6557600080fd5b5035919050565b60008083601f840112610d7e57600080fd5b50813567ffffffffffffffff811115610d9657600080fd5b602083019150836020828501011115610dae57600080fd5b9250929050565b6001600160a01b0381168114610a1f57600080fd5b600080600080600080600060a0888a031215610de557600080fd5b873567ffffffffffffffff80821115610dfd57600080fd5b610e098b838c01610d6c565b909950975060208a01359150610e1e82610db5565b90955060408901359450606089013590610e3782610db5565b90935060808901359080821115610e4d57600080fd5b50610e5a8a828b01610d6c565b989b979a50959850939692959293505050565b600060208284031215610e7f57600080fd5b8135610c9f81610db5565b60008060408385031215610e9d57600080fd5b8235610ea881610db5565b946020939093013593505050565b634e487b7160e01b600052604160045260246000fd5b60008060408385031215610edf57600080fd5b8235610eea81610db5565b9150602083013567ffffffffffffffff80821115610f0757600080fd5b818501915085601f830112610f1b57600080fd5b813581811115610f2d57610f2d610eb6565b604051601f8201601f19908116603f01168101908382118183101715610f5557610f55610eb6565b81604052828152886020848701011115610f6e57600080fd5b8260208601602083013760006020848301015280955050505050509250929050565b60008060008060008060c08789031215610fa957600080fd5b8635610fb481610db5565b9860208801359850604088013597606081013597506080810135965060a00135945092505050565b60008083601f840112610fee57600080fd5b50813567ffffffffffffffff81111561100657600080fd5b6020830191508360208260051b8501011115610dae57600080fd5b6000806000806040858703121561103757600080fd5b843567ffffffffffffffff8082111561104f57600080fd5b61105b88838901610d6c565b9096509450602087013591508082111561107457600080fd5b5061108187828801610fdc565b95989497509550505050565b600080602083850312156110a057600080fd5b823567ffffffffffffffff8111156110b757600080fd5b6110c385828601610fdc565b90969095509350505050565b60005b838110156110ea5781810151838201526020016110d2565b50506000910152565b6000815180845261110b8160208601602086016110cf565b601f01601f19169290920160200192915050565b600060208083016020845280855180835260408601915060408160051b87010192506020870160005b8281101561117657603f198886030184526111648583516110f3565b94509285019290850190600101611148565b5092979650505050505050565b602081526000610c9f60208301846110f3565b600080602083850312156111a957600080fd5b823567ffffffffffffffff8111156111c057600080fd5b6110c385828601610d6c565b6020815260008251606060208401526111e860808401826110f3565b905060208401516040840152604084015160608401528091505092915050565b634e487b7160e01b600052601160045260246000fd5b81810381811115610ba257610ba2611208565b600181811c9082168061124557607f821691505b60208210810361126557634e487b7160e01b600052602260045260246000fd5b50919050565b601f8211156103cb576000816000526020600020601f850160051c810160208610156112945750805b601f850160051c820191505b818110156112b3578281556001016112a0565b505050505050565b815167ffffffffffffffff8111156112d5576112d5610eb6565b6112e9816112e38454611231565b8461126b565b602080601f83116001811461131e57600084156113065750858301515b600019600386901b1c1916600185901b1785556112b3565b600085815260208120601f198616915b8281101561134d5788860151825594840194600190910190840161132e565b508582101561136b5787850151600019600388901b60f8161c191681555b5050505050600190811b01905550565b60208152816020820152818360408301376000818301604090810191909152601f909201601f19160101919050565b80820180821115610ba257610ba2611208565b634e487b7160e01b600052603260045260246000fd5b6000808335601e198436030181126113ea57600080fd5b83018035915067ffffffffffffffff82111561140557600080fd5b602001915036819003821315610dae57600080fd5b6000806000806080858703121561143057600080fd5b843561143b81610db5565b9350602085013561144b81610db5565b93969395505050506040820135916060013590565b60006020828403121561147257600080fd5b5051919050565b6000825161148b8184602087016110cf565b919091019291505056fe360894a13ba1a3210667c828492db98dca3e2076cc3735a920a3ca505d382bbca2646970667358221220e4ca9c72c6fbcbc2fec141ed80aa924e9f73a540bf71465d182ce93d477fc25f64736f6c63430008190033","linkReferences":{}},"methodIdentifiers":{"CONTRACT_BASE_ID()":"01144201","UPGRADE_INTERFACE_VERSION()":"ad3cb1cc","balanceOf(address)":"70a08231","createToken(string,address,uint256,address,bytes)":"365b5fa4","deposit(address,uint256)":"47e7ef24","ethBalances(address)":"3cfba0e3","getTokens(uint256)":"d3c9cc26","handleCreateSale(bytes)":"c6b757ad","initialize(string,bytes[])":"89416a08","initializeSaleStrategy(address,uint256,uint256,uint256,uint256,uint256)":"56129809","multicall(bytes[])":"ac9650d8","nextTokenId()":"75794a3c","proxiableUUID()":"52d1902d","upgradeToAndCall(address,bytes)":"4f1ef286","withdraw(uint256)":"2e1a7d4d"},"id":42}