{"abi":[{"type":"constructor","inputs":[{"name":"_platformRecipient","type":"address","internalType":"address"}],"stateMutability":"nonpayable"},{"type":"function","name":"CONTRACT_BASE_ID","inputs":[],"outputs":[{"name":"","type":"uint256","internalType":"uint256"}],"stateMutability":"view"},{"type":"function","name":"DEFAULT_ADMIN_ROLE","inputs":[],"outputs":[{"name":"","type":"bytes32","internalType":"bytes32"}],"stateMutability":"view"},{"type":"function","name":"MANAGER_ROLE","inputs":[],"outputs":[{"name":"","type":"bytes32","internalType":"bytes32"}],"stateMutability":"view"},{"type":"function","name":"UPGRADE_INTERFACE_VERSION","inputs":[],"outputs":[{"name":"","type":"string","internalType":"string"}],"stateMutability":"view"},{"type":"function","name":"_setManagers","inputs":[{"name":"managers","type":"address[]","internalType":"address[]"}],"outputs":[],"stateMutability":"nonpayable"},{"type":"function","name":"balanceOf","inputs":[{"name":"account","type":"address","internalType":"address"},{"name":"id","type":"uint256","internalType":"uint256"}],"outputs":[{"name":"","type":"uint256","internalType":"uint256"}],"stateMutability":"view"},{"type":"function","name":"balanceOf","inputs":[{"name":"account","type":"address","internalType":"address"}],"outputs":[{"name":"","type":"uint256","internalType":"uint256"}],"stateMutability":"view"},{"type":"function","name":"balanceOfBatch","inputs":[{"name":"accounts","type":"address[]","internalType":"address[]"},{"name":"ids","type":"uint256[]","internalType":"uint256[]"}],"outputs":[{"name":"","type":"uint256[]","internalType":"uint256[]"}],"stateMutability":"view"},{"type":"function","name":"channelFees","inputs":[],"outputs":[{"name":"","type":"uint256","internalType":"uint256"},{"name":"","type":"uint256","internalType":"uint256"},{"name":"","type":"uint256","internalType":"uint256"},{"name":"","type":"uint256","internalType":"uint256"},{"name":"","type":"uint256","internalType":"uint256"}],"stateMutability":"view"},{"type":"function","name":"createToken","inputs":[{"name":"uri","type":"string","internalType":"string"},{"name":"author","type":"address","internalType":"address"},{"name":"maxSupply","type":"uint256","internalType":"uint256"},{"name":"saleArgs","type":"bytes","internalType":"bytes"}],"outputs":[{"name":"","type":"uint256","internalType":"uint256"}],"stateMutability":"nonpayable"},{"type":"function","name":"deposit","inputs":[{"name":"rx","type":"address","internalType":"address"},{"name":"amount","type":"uint256","internalType":"uint256"}],"outputs":[],"stateMutability":"payable"},{"type":"function","name":"ethBalances","inputs":[{"name":"","type":"address","internalType":"address"}],"outputs":[{"name":"","type":"uint256","internalType":"uint256"}],"stateMutability":"view"},{"type":"function","name":"getRoleAdmin","inputs":[{"name":"role","type":"bytes32","internalType":"bytes32"}],"outputs":[{"name":"","type":"bytes32","internalType":"bytes32"}],"stateMutability":"view"},{"type":"function","name":"getTokenInfo","inputs":[{"name":"tokenId","type":"uint256","internalType":"uint256"}],"outputs":[{"name":"","type":"tuple","internalType":"struct IChannelTypesV1.TokenConfig","components":[{"name":"uri","type":"string","internalType":"string"},{"name":"maxSupply","type":"uint256","internalType":"uint256"},{"name":"totalMinted","type":"uint256","internalType":"uint256"}]}],"stateMutability":"view"},{"type":"function","name":"getTokens","inputs":[{"name":"tokenId","type":"uint256","internalType":"uint256"}],"outputs":[{"name":"","type":"tuple","internalType":"struct IChannelTypesV1.TokenConfig","components":[{"name":"uri","type":"string","internalType":"string"},{"name":"maxSupply","type":"uint256","internalType":"uint256"},{"name":"totalMinted","type":"uint256","internalType":"uint256"}]}],"stateMutability":"view"},{"type":"function","name":"grantRole","inputs":[{"name":"role","type":"bytes32","internalType":"bytes32"},{"name":"account","type":"address","internalType":"address"}],"outputs":[],"stateMutability":"nonpayable"},{"type":"function","name":"hasRole","inputs":[{"name":"role","type":"bytes32","internalType":"bytes32"},{"name":"account","type":"address","internalType":"address"}],"outputs":[{"name":"","type":"bool","internalType":"bool"}],"stateMutability":"view"},{"type":"function","name":"initialize","inputs":[{"name":"uri","type":"string","internalType":"string"},{"name":"defaultAdmin","type":"address","internalType":"address"},{"name":"managers","type":"address[]","internalType":"address[]"},{"name":"setupActions","type":"bytes[]","internalType":"bytes[]"}],"outputs":[],"stateMutability":"nonpayable"},{"type":"function","name":"isAdmin","inputs":[{"name":"addr","type":"address","internalType":"address"}],"outputs":[{"name":"","type":"bool","internalType":"bool"}],"stateMutability":"nonpayable"},{"type":"function","name":"isApprovedForAll","inputs":[{"name":"account","type":"address","internalType":"address"},{"name":"operator","type":"address","internalType":"address"}],"outputs":[{"name":"","type":"bool","internalType":"bool"}],"stateMutability":"view"},{"type":"function","name":"isManager","inputs":[{"name":"addr","type":"address","internalType":"address"}],"outputs":[{"name":"","type":"bool","internalType":"bool"}],"stateMutability":"nonpayable"},{"type":"function","name":"mintPrice","inputs":[],"outputs":[{"name":"","type":"uint256","internalType":"uint256"}],"stateMutability":"view"},{"type":"function","name":"multicall","inputs":[{"name":"data","type":"bytes[]","internalType":"bytes[]"}],"outputs":[{"name":"results","type":"bytes[]","internalType":"bytes[]"}],"stateMutability":"nonpayable"},{"type":"function","name":"nextTokenId","inputs":[],"outputs":[{"name":"","type":"uint256","internalType":"uint256"}],"stateMutability":"view"},{"type":"function","name":"proxiableUUID","inputs":[],"outputs":[{"name":"","type":"bytes32","internalType":"bytes32"}],"stateMutability":"view"},{"type":"function","name":"renounceRole","inputs":[{"name":"role","type":"bytes32","internalType":"bytes32"},{"name":"callerConfirmation","type":"address","internalType":"address"}],"outputs":[],"stateMutability":"nonpayable"},{"type":"function","name":"revokeManager","inputs":[{"name":"addr","type":"address","internalType":"address"}],"outputs":[],"stateMutability":"nonpayable"},{"type":"function","name":"revokeRole","inputs":[{"name":"role","type":"bytes32","internalType":"bytes32"},{"name":"account","type":"address","internalType":"address"}],"outputs":[],"stateMutability":"nonpayable"},{"type":"function","name":"safeBatchTransferFrom","inputs":[{"name":"from","type":"address","internalType":"address"},{"name":"to","type":"address","internalType":"address"},{"name":"ids","type":"uint256[]","internalType":"uint256[]"},{"name":"values","type":"uint256[]","internalType":"uint256[]"},{"name":"data","type":"bytes","internalType":"bytes"}],"outputs":[],"stateMutability":"nonpayable"},{"type":"function","name":"safeTransferFrom","inputs":[{"name":"from","type":"address","internalType":"address"},{"name":"to","type":"address","internalType":"address"},{"name":"id","type":"uint256","internalType":"uint256"},{"name":"value","type":"uint256","internalType":"uint256"},{"name":"data","type":"bytes","internalType":"bytes"}],"outputs":[],"stateMutability":"nonpayable"},{"type":"function","name":"setApprovalForAll","inputs":[{"name":"operator","type":"address","internalType":"address"},{"name":"approved","type":"bool","internalType":"bool"}],"outputs":[],"stateMutability":"nonpayable"},{"type":"function","name":"setChannelFeeConfig","inputs":[{"name":"_feeContract","type":"address","internalType":"contract IFees"},{"name":"data","type":"bytes","internalType":"bytes"}],"outputs":[],"stateMutability":"nonpayable"},{"type":"function","name":"setCreatorLogic","inputs":[{"name":"_logicContract","type":"address","internalType":"contract ILogic"},{"name":"data","type":"bytes","internalType":"bytes"}],"outputs":[],"stateMutability":"nonpayable"},{"type":"function","name":"supportsInterface","inputs":[{"name":"interfaceId","type":"bytes4","internalType":"bytes4"}],"outputs":[{"name":"","type":"bool","internalType":"bool"}],"stateMutability":"view"},{"type":"function","name":"upgradeToAndCall","inputs":[{"name":"newImplementation","type":"address","internalType":"address"},{"name":"data","type":"bytes","internalType":"bytes"}],"outputs":[],"stateMutability":"payable"},{"type":"function","name":"uri","inputs":[{"name":"","type":"uint256","internalType":"uint256"}],"outputs":[{"name":"","type":"string","internalType":"string"}],"stateMutability":"view"},{"type":"function","name":"withdraw","inputs":[{"name":"_amount","type":"uint256","internalType":"uint256"}],"outputs":[],"stateMutability":"nonpayable"},{"type":"event","name":"ApprovalForAll","inputs":[{"name":"account","type":"address","indexed":true,"internalType":"address"},{"name":"operator","type":"address","indexed":true,"internalType":"address"},{"name":"approved","type":"bool","indexed":false,"internalType":"bool"}],"anonymous":false},{"type":"event","name":"Initialized","inputs":[{"name":"version","type":"uint64","indexed":false,"internalType":"uint64"}],"anonymous":false},{"type":"event","name":"RoleAdminChanged","inputs":[{"name":"role","type":"bytes32","indexed":true,"internalType":"bytes32"},{"name":"previousAdminRole","type":"bytes32","indexed":true,"internalType":"bytes32"},{"name":"newAdminRole","type":"bytes32","indexed":true,"internalType":"bytes32"}],"anonymous":false},{"type":"event","name":"RoleGranted","inputs":[{"name":"role","type":"bytes32","indexed":true,"internalType":"bytes32"},{"name":"account","type":"address","indexed":true,"internalType":"address"},{"name":"sender","type":"address","indexed":true,"internalType":"address"}],"anonymous":false},{"type":"event","name":"RoleRevoked","inputs":[{"name":"role","type":"bytes32","indexed":true,"internalType":"bytes32"},{"name":"account","type":"address","indexed":true,"internalType":"address"},{"name":"sender","type":"address","indexed":true,"internalType":"address"}],"anonymous":false},{"type":"event","name":"TransferBatch","inputs":[{"name":"operator","type":"address","indexed":true,"internalType":"address"},{"name":"from","type":"address","indexed":true,"internalType":"address"},{"name":"to","type":"address","indexed":true,"internalType":"address"},{"name":"ids","type":"uint256[]","indexed":false,"internalType":"uint256[]"},{"name":"values","type":"uint256[]","indexed":false,"internalType":"uint256[]"}],"anonymous":false},{"type":"event","name":"TransferSingle","inputs":[{"name":"operator","type":"address","indexed":true,"internalType":"address"},{"name":"from","type":"address","indexed":true,"internalType":"address"},{"name":"to","type":"address","indexed":true,"internalType":"address"},{"name":"id","type":"uint256","indexed":false,"internalType":"uint256"},{"name":"value","type":"uint256","indexed":false,"internalType":"uint256"}],"anonymous":false},{"type":"event","name":"URI","inputs":[{"name":"value","type":"string","indexed":false,"internalType":"string"},{"name":"id","type":"uint256","indexed":true,"internalType":"uint256"}],"anonymous":false},{"type":"event","name":"Upgraded","inputs":[{"name":"implementation","type":"address","indexed":true,"internalType":"address"}],"anonymous":false},{"type":"error","name":"AccessControlBadConfirmation","inputs":[]},{"type":"error","name":"AccessControlUnauthorizedAccount","inputs":[{"name":"account","type":"address","internalType":"address"},{"name":"neededRole","type":"bytes32","internalType":"bytes32"}]},{"type":"error","name":"AddressEmptyCode","inputs":[{"name":"target","type":"address","internalType":"address"}]},{"type":"error","name":"ERC1155InsufficientBalance","inputs":[{"name":"sender","type":"address","internalType":"address"},{"name":"balance","type":"uint256","internalType":"uint256"},{"name":"needed","type":"uint256","internalType":"uint256"},{"name":"tokenId","type":"uint256","internalType":"uint256"}]},{"type":"error","name":"ERC1155InvalidApprover","inputs":[{"name":"approver","type":"address","internalType":"address"}]},{"type":"error","name":"ERC1155InvalidArrayLength","inputs":[{"name":"idsLength","type":"uint256","internalType":"uint256"},{"name":"valuesLength","type":"uint256","internalType":"uint256"}]},{"type":"error","name":"ERC1155InvalidOperator","inputs":[{"name":"operator","type":"address","internalType":"address"}]},{"type":"error","name":"ERC1155InvalidReceiver","inputs":[{"name":"receiver","type":"address","internalType":"address"}]},{"type":"error","name":"ERC1155InvalidSender","inputs":[{"name":"sender","type":"address","internalType":"address"}]},{"type":"error","name":"ERC1155MissingApprovalForAll","inputs":[{"name":"operator","type":"address","internalType":"address"},{"name":"owner","type":"address","internalType":"address"}]},{"type":"error","name":"ERC1967InvalidImplementation","inputs":[{"name":"implementation","type":"address","internalType":"address"}]},{"type":"error","name":"ERC1967NonPayable","inputs":[]},{"type":"error","name":"FailedInnerCall","inputs":[]},{"type":"error","name":"InvalidInitialization","inputs":[]},{"type":"error","name":"NotInitializing","inputs":[]},{"type":"error","name":"UUPSUnauthorizedCallContext","inputs":[]},{"type":"error","name":"UUPSUnsupportedProxiableUUID","inputs":[{"name":"slot","type":"bytes32","internalType":"bytes32"}]}],"bytecode":{"object":"0x60a0604052306080523480156200001557600080fd5b5060405162002f2e38038062002f2e83398101604081905262000038916200016b565b7ff0c57e16840df040f15088dc2f81fe391c3923bec73e23a9662efc9c229c6a00805468010000000000000000810460ff1615906001600160401b0316600081158015620000835750825b90506000826001600160401b03166001148015620000a05750303b155b905081158015620000af575080155b15620000ce5760405163f92ee8a960e01b815260040160405180910390fd5b84546001600160401b03191660011785558315620000fd57845460ff60401b1916680100000000000000001785555b600280546001600160a01b0319166001600160a01b03881617905583156200015f57845460ff60401b19168555604051600181527fc7f505b2f371ae2175ee4913f4499e1f2633a7b5936321eed1cdaeb6115181d29060200160405180910390a15b5050505050506200019d565b6000602082840312156200017e57600080fd5b81516001600160a01b03811681146200019657600080fd5b9392505050565b608051612d67620001c76000396000818161162a01528181611653015261178c0152612d676000f3fe6080604052600436106102195760003560e01c806370a0823111610123578063ad3cb1cc116100ab578063d547741f1161006f578063d547741f14610643578063e985e9c514610663578063ec87621c14610683578063f242432a146106a5578063f3ae2415146106c557600080fd5b8063ad3cb1cc146105b2578063b11a4de8146105e3578063b445478414610603578063ba4a917314610623578063d3c9cc26146104f857600080fd5b806391d14854116100f257806391d1485414610525578063a217fddf14610251578063a22cb46514610545578063a999842414610565578063ac9650d81461058557600080fd5b806370a082311461046f57806375794a3c146104a55780637d06d10a146104bb5780638c7a63ae146104f857600080fd5b80632f2ff15d116101a657806347e7ef241161017557806347e7ef24146103f25780634e1273f4146104055780634f1ef2861461043257806352d1902d146104455780636817c76c1461045a57600080fd5b80632f2ff15d1461036557806336568abe14610385578063377e32e6146103a55780633cfba0e3146103c557600080fd5b8063248a9ca3116101ed578063248a9ca3146102c357806324d7806c146102e35780632bba0000146103035780632e1a7d4d146103255780632eb2c2d61461034557600080fd5b8062fdd58e1461021e578063011442011461025157806301ffc9a7146102665780630e89341c14610296575b600080fd5b34801561022a57600080fd5b5061023e610239366004612086565b6106e5565b6040519081526020015b60405180910390f35b34801561025d57600080fd5b5061023e600081565b34801561027257600080fd5b506102866102813660046120c8565b61071c565b6040519015158152602001610248565b3480156102a257600080fd5b506102b66102b13660046120e5565b610727565b604051610248919061214e565b3480156102cf57600080fd5b5061023e6102de3660046120e5565b6107ec565b3480156102ef57600080fd5b506102866102fe366004612161565b61080e565b34801561030f57600080fd5b5061032361031e36600461220a565b61081a565b005b34801561033157600080fd5b506103236103403660046120e5565b610a25565b34801561035157600080fd5b506103236103603660046123ff565b610af2565b34801561037157600080fd5b506103236103803660046124ac565b610b59565b34801561039157600080fd5b506103236103a03660046124ac565b610b7b565b3480156103b157600080fd5b506103236103c0366004612161565b610bae565b3480156103d157600080fd5b5061023e6103e0366004612161565b60036020526000908152604090205481565b610323610400366004612086565b610bd2565b34801561041157600080fd5b50610425610420366004612544565b610c03565b60405161024891906125e3565b6103236104403660046125f6565b610ccf565b34801561045157600080fd5b5061023e610ce5565b34801561046657600080fd5b5061023e610d02565b34801561047b57600080fd5b5061023e61048a366004612161565b6001600160a01b031660009081526003602052604090205490565b3480156104b157600080fd5b5061023e60015481565b3480156104c757600080fd5b506104d0610d80565b604080519586526020860194909452928401919091526060830152608082015260a001610248565b34801561050457600080fd5b506105186105133660046120e5565b610e10565b604051610248919061263b565b34801561053157600080fd5b506102866105403660046124ac565b610ef9565b34801561055157600080fd5b50610323610560366004612685565b610f31565b34801561057157600080fd5b506103236105803660046126b3565b610f3c565b34801561059157600080fd5b506105a56105a0366004612707565b610fbc565b6040516102489190612748565b3480156105be57600080fd5b506102b6604051806040016040528060058152602001640352e302e360dc1b81525081565b3480156105ef57600080fd5b506103236105fe3660046126b3565b6110a5565b34801561060f57600080fd5b5061032361061e3660046127ac565b6110e8565b34801561062f57600080fd5b5061023e61063e3660046127e8565b611136565b34801561064f57600080fd5b5061032361065e3660046124ac565b611266565b34801561066f57600080fd5b5061028661067e366004612875565b611282565b34801561068f57600080fd5b5061023e600080516020612cd283398151915281565b3480156106b157600080fd5b506103236106c03660046128a3565b6112cf565b3480156106d157600080fd5b506102866106e0366004612161565b61132e565b6000818152600080516020612cf2833981519152602090815260408083206001600160a01b03861684529091529020545b92915050565b600061071682611359565b7f88be536d5240c274a3b1d3a1be54482fd9caa294f08c62a7cde569f49a3c45028054606091600080516020612cf2833981519152916107669061290b565b80601f01602080910402602001604051908101604052809291908181526020018280546107929061290b565b80156107df5780601f106107b4576101008083540402835291602001916107df565b820191906000526020600020905b8154815290600101906020018083116107c257829003601f168201915b5050505050915050919050565b6000908152600080516020612d12833981519152602052604090206001015490565b60006107168183610ef9565b7ff0c57e16840df040f15088dc2f81fe391c3923bec73e23a9662efc9c229c6a008054600160401b810460ff1615906001600160401b031660008115801561085f5750825b90506000826001600160401b0316600114801561087b5750303b155b905081158015610889575080155b156108a75760405163f92ee8a960e01b815260040160405180910390fd5b845467ffffffffffffffff1916600117855583156108d157845460ff60401b1916600160401b1785555b6109108c8c8080601f01602080910402602001604051908101604052809392919081815260200183838082843760009201919091525061137e92505050565b61091861138f565b61092061138f565b61092b600033611399565b5061093760008b610b59565b6109738989808060200260200160405190810160405280939291908181526020018383602002808284376000920191909152506110e892505050565b6109b28c8c8080601f0160208091040260200160405190810160405280939291908181526020018383808284376000920182905250925061143e915050565b5085156109c5576109c38787610fbc565b505b6109d06000336114ac565b508315610a1757845460ff60401b19168555604051600181527fc7f505b2f371ae2175ee4913f4499e1f2633a7b5936321eed1cdaeb6115181d29060200160405180910390a15b505050505050505050505050565b806000819003610a415750336000908152600360205260409020545b33600090815260036020526040902054811115610a9c5760405162461bcd60e51b8152602060048201526014602482015273496e73756666696369656e742062616c616e636560601b60448201526064015b60405180910390fd5b3360009081526003602052604081208054839290610abb90849061295b565b9091555050604051339082156108fc029083906000818181858888f19350505050158015610aed573d6000803e3d6000fd5b505050565b336001600160a01b0386168114801590610b135750610b118682611282565b155b15610b445760405163711bec9160e11b81526001600160a01b03808316600483015287166024820152604401610a93565b610b518686868686611528565b505050505050565b610b62826107ec565b610b6b8161158f565b610b758383611399565b50505050565b6001600160a01b0381163314610ba45760405163334bd91960e11b815260040160405180910390fd5b610aed82826114ac565b610bb733611599565b610bcf600080516020612cd283398151915282611266565b50565b6001600160a01b03821660009081526003602052604081208054839290610bfa90849061296e565b90915550505050565b60608151835114610c345781518351604051635b05999160e01b815260048101929092526024820152604401610a93565b600083516001600160401b03811115610c4f57610c4f6122b8565b604051908082528060200260200182016040528015610c78578160200160208202803683370190505b50905060005b8451811015610cc757602080820286010151610ca2906020808402870101516106e5565b828281518110610cb457610cb4612981565b6020908102919091010152600101610c7e565b509392505050565b610cd761161f565b610ce182826116c4565b5050565b6000610cef611781565b50600080516020612cb283398151915290565b6000600460009054906101000a90046001600160a01b03166001600160a01b031663a7f93ebd6040518163ffffffff1660e01b8152600401602060405180830381865afa158015610d57573d6000803e3d6000fd5b505050506040513d601f19601f82011682018060405250810190610d7b9190612997565b905090565b6000806000806000600460009054906101000a90046001600160a01b03166001600160a01b03166376d275386040518163ffffffff1660e01b815260040160a060405180830381865afa158015610ddb573d6000803e3d6000fd5b505050506040513d601f19601f82011682018060405250810190610dff91906129b0565b945094509450945094509091929394565b610e3460405180606001604052806060815260200160008152602001600081525090565b60008281526020819052604090819020815160608101909252805482908290610e5c9061290b565b80601f0160208091040260200160405190810160405280929190818152602001828054610e889061290b565b8015610ed55780601f10610eaa57610100808354040283529160200191610ed5565b820191906000526020600020905b815481529060010190602001808311610eb857829003601f168201915b50505050508152602001600182015481526020016002820154815250509050919050565b6000918252600080516020612d12833981519152602090815260408084206001600160a01b0393909316845291905290205460ff1690565b610ce13383836117ca565b610f4533611599565b600480546001600160a01b0319166001600160a01b0385169081178255604051633d5fc41960e21b8152909163f57f106491610f85918691869101612a19565b600060405180830381600087803b158015610f9f57600080fd5b505af1158015610fb3573d6000803e3d6000fd5b50505050505050565b6060816001600160401b03811115610fd657610fd66122b8565b60405190808252806020026020018201604052801561100957816020015b6060815260200190600190039081610ff45790505b50905060005b8281101561109e576110793085858481811061102d5761102d612981565b905060200281019061103f9190612a2d565b8080601f01602080910402602001604051908101604052809392919081815260200183838082843760009201919091525061187292505050565b82828151811061108b5761108b612981565b602090810291909101015260010161100f565b5092915050565b600580546001600160a01b0319166001600160a01b03851690811790915560405163162349bd60e31b815263b11a4de890610f8590309086908690600401612a73565b6110f133611599565b60005b8151811015610ce15761112e600080516020612cd283398151915283838151811061112157611121612981565b6020026020010151610b59565b6001016110f4565b600554604051633ec7d13960e21b815230600482015233602482015260009182916001600160a01b039091169063fb1f44e490604401602060405180830381865afa158015611189573d6000803e3d6000fd5b505050506040513d601f19601f820116820180604052508101906111ad9190612a98565b9050806112195760405162461bcd60e51b815260206004820152603460248201527f6d73672e73656e646572206e6f7420617070726f76656420746f206372656174604482015273329034b7103a3434b99031b7b63632b1ba34b7b760611b6064820152608401610a93565b61125a88888080601f01602080910402602001604051908101604052809392919081815260200183838082843760009201919091525089925061143e915050565b98975050505050505050565b61126f826107ec565b6112788161158f565b610b7583836114ac565b6001600160a01b0391821660009081527f88be536d5240c274a3b1d3a1be54482fd9caa294f08c62a7cde569f49a3c45016020908152604080832093909416825291909152205460ff1690565b336001600160a01b03861681148015906112f057506112ee8682611282565b155b156113215760405163711bec9160e11b81526001600160a01b03808316600483015287166024820152604401610a93565b610b5186868686866118e8565b6000611348600080516020612cd283398151915283610ef9565b806107165750610716600083610ef9565b60006001600160e01b03198216637965db0b60e01b148061071657506107168261196d565b6113866119bd565b610bcf81611a06565b6113976119bd565b565b6000600080516020612d128339815191526113b48484610ef9565b611434576000848152602082815260408083206001600160a01b03871684529091529020805460ff191660011790556113ea3390565b6001600160a01b0316836001600160a01b0316857f2f8788117e7eff1d82e926ec794901d17c78024a50270940304540a733656f0d60405160405180910390a46001915050610716565b6000915050610716565b60006114506001805480820190915590565b6040805160608101825285815260208082018690526000828401819052848152908190529190912081519293509091829190819061148e9082612afd565b50602082015160018201556040909101516002909101555092915050565b6000600080516020612d128339815191526114c78484610ef9565b15611434576000848152602082815260408083206001600160a01b0387168085529252808320805460ff1916905551339287917ff6391f5c32d9c69d2a47ea670b442974b53935d1edc7fd64eb21e047a839171b9190a46001915050610716565b6001600160a01b03841661155257604051632bfa23e760e11b815260006004820152602401610a93565b6001600160a01b03851661157b57604051626a0d4560e21b815260006004820152602401610a93565b6115888585858585611a17565b5050505050565b610bcf8133611a6a565b6115a4600082610ef9565b806115c257506115c2600080516020612cd283398151915282610ef9565b610bcf5760405162461bcd60e51b815260206004820152602860248201527f4368616e6e656c3a206d75737420686176652061646d696e206f72206d616e6160448201526767657220726f6c6560c01b6064820152608401610a93565b306001600160a01b037f00000000000000000000000000000000000000000000000000000000000000001614806116a657507f00000000000000000000000000000000000000000000000000000000000000006001600160a01b031661169a600080516020612cb2833981519152546001600160a01b031690565b6001600160a01b031614155b156113975760405163703e46dd60e11b815260040160405180910390fd5b816001600160a01b03166352d1902d6040518163ffffffff1660e01b8152600401602060405180830381865afa92505050801561171e575060408051601f3d908101601f1916820190925261171b91810190612997565b60015b61174657604051634c9c8ce360e01b81526001600160a01b0383166004820152602401610a93565b600080516020612cb2833981519152811461177757604051632a87526960e21b815260048101829052602401610a93565b610aed8383611aa3565b306001600160a01b037f000000000000000000000000000000000000000000000000000000000000000016146113975760405163703e46dd60e11b815260040160405180910390fd5b600080516020612cf28339815191526001600160a01b0383166118025760405162ced3e160e81b815260006004820152602401610a93565b6001600160a01b038481166000818152600184016020908152604080832094881680845294825291829020805460ff191687151590811790915591519182527f17307eab39ab6107e8899845ad3d59bd9653f200f220920489ca2b5937696c31910160405180910390a350505050565b6060600080846001600160a01b03168460405161188f9190612bbc565b600060405180830381855af49150503d80600081146118ca576040519150601f19603f3d011682016040523d82523d6000602084013e6118cf565b606091505b50915091506118df858383611af9565b95945050505050565b6001600160a01b03841661191257604051632bfa23e760e11b815260006004820152602401610a93565b6001600160a01b03851661193b57604051626a0d4560e21b815260006004820152602401610a93565b60408051600180825260208201869052818301908152606082018590526080820190925290610fb38787848487611a17565b60006001600160e01b03198216636cdb3d1360e11b148061199e57506001600160e01b031982166303a24d0760e21b145b8061071657506301ffc9a760e01b6001600160e01b0319831614610716565b7ff0c57e16840df040f15088dc2f81fe391c3923bec73e23a9662efc9c229c6a0054600160401b900460ff1661139757604051631afcd79f60e31b815260040160405180910390fd5b611a0e6119bd565b610bcf81611b58565b611a2385858585611b92565b6001600160a01b038416156115885782513390600103611a5c5760208481015190840151611a55838989858589611db7565b5050610b51565b610b51818787878787611edb565b611a748282610ef9565b610ce15760405163e2517d3f60e01b81526001600160a01b038216600482015260248101839052604401610a93565b611aac82611fc4565b6040516001600160a01b038316907fbc7cd75a20ee27fd9adebab32041f755214dbc6bffa90cc0225b39da2e5c2d3b90600090a2805115611af157610aed8282611872565b610ce1612029565b606082611b0e57611b0982612048565b611b51565b8151158015611b2557506001600160a01b0384163b155b15611b4e57604051639996b31560e01b81526001600160a01b0385166004820152602401610a93565b50805b9392505050565b600080516020612cf28339815191527f88be536d5240c274a3b1d3a1be54482fd9caa294f08c62a7cde569f49a3c4502610aed8382612afd565b80518251600080516020612cf28339815191529114611bd15782518251604051635b05999160e01b815260048101929092526024820152604401610a93565b3360005b8451811015611cd7576020818102868101820151908601909101516001600160a01b03891615611c88576000828152602086815260408083206001600160a01b038d16845290915290205481811015611c61576040516303dee4c560e01b81526001600160a01b038b166004820152602481018290526044810183905260648101849052608401610a93565b6000838152602087815260408083206001600160a01b038e16845290915290209082900390555b6001600160a01b03881615611ccd576000828152602086815260408083206001600160a01b038c16845290915281208054839290611cc790849061296e565b90915550505b5050600101611bd5565b508351600103611d585760208401516000906020850151909150866001600160a01b0316886001600160a01b0316846001600160a01b03167fc3d58168c5ae7397731d063d5bbf3d657854427343f4c083240f7aacaa2d0f628585604051611d49929190918252602082015260400190565b60405180910390a45050610b51565b846001600160a01b0316866001600160a01b0316826001600160a01b03167f4a39dc06d4c0dbc64b70af90fd698a233a518aa5d07e595d983b8c0526c8f7fb8787604051611da7929190612bd8565b60405180910390a4505050505050565b6001600160a01b0384163b15610b515760405163f23a6e6160e01b81526001600160a01b0385169063f23a6e6190611dfb9089908990889088908890600401612bfd565b6020604051808303816000875af1925050508015611e36575060408051601f3d908101601f19168201909252611e3391810190612c42565b60015b611e9f573d808015611e64576040519150601f19603f3d011682016040523d82523d6000602084013e611e69565b606091505b508051600003611e9757604051632bfa23e760e11b81526001600160a01b0386166004820152602401610a93565b805181602001fd5b6001600160e01b0319811663f23a6e6160e01b14610fb357604051632bfa23e760e11b81526001600160a01b0386166004820152602401610a93565b6001600160a01b0384163b15610b515760405163bc197c8160e01b81526001600160a01b0385169063bc197c8190611f1f9089908990889088908890600401612c5f565b6020604051808303816000875af1925050508015611f5a575060408051601f3d908101601f19168201909252611f5791810190612c42565b60015b611f88573d808015611e64576040519150601f19603f3d011682016040523d82523d6000602084013e611e69565b6001600160e01b0319811663bc197c8160e01b14610fb357604051632bfa23e760e11b81526001600160a01b0386166004820152602401610a93565b806001600160a01b03163b600003611ffa57604051634c9c8ce360e01b81526001600160a01b0382166004820152602401610a93565b600080516020612cb283398151915280546001600160a01b0319166001600160a01b0392909216919091179055565b34156113975760405163b398979f60e01b815260040160405180910390fd5b8051156120585780518082602001fd5b604051630a12f52160e11b815260040160405180910390fd5b6001600160a01b0381168114610bcf57600080fd5b6000806040838503121561209957600080fd5b82356120a481612071565b946020939093013593505050565b6001600160e01b031981168114610bcf57600080fd5b6000602082840312156120da57600080fd5b8135611b51816120b2565b6000602082840312156120f757600080fd5b5035919050565b60005b83811015612119578181015183820152602001612101565b50506000910152565b6000815180845261213a8160208601602086016120fe565b601f01601f19169290920160200192915050565b602081526000611b516020830184612122565b60006020828403121561217357600080fd5b8135611b5181612071565b60008083601f84011261219057600080fd5b5081356001600160401b038111156121a757600080fd5b6020830191508360208285010111156121bf57600080fd5b9250929050565b60008083601f8401126121d857600080fd5b5081356001600160401b038111156121ef57600080fd5b6020830191508360208260051b85010111156121bf57600080fd5b60008060008060008060006080888a03121561222557600080fd5b87356001600160401b038082111561223c57600080fd5b6122488b838c0161217e565b909950975060208a0135915061225d82612071565b9095506040890135908082111561227357600080fd5b61227f8b838c016121c6565b909650945060608a013591508082111561229857600080fd5b506122a58a828b016121c6565b989b979a50959850939692959293505050565b634e487b7160e01b600052604160045260246000fd5b604051601f8201601f191681016001600160401b03811182821017156122f6576122f66122b8565b604052919050565b60006001600160401b03821115612317576123176122b8565b5060051b60200190565b600082601f83011261233257600080fd5b81356020612347612342836122fe565b6122ce565b8083825260208201915060208460051b87010193508684111561236957600080fd5b602086015b84811015612385578035835291830191830161236e565b509695505050505050565b600082601f8301126123a157600080fd5b81356001600160401b038111156123ba576123ba6122b8565b6123cd601f8201601f19166020016122ce565b8181528460208386010111156123e257600080fd5b816020850160208301376000918101602001919091529392505050565b600080600080600060a0868803121561241757600080fd5b853561242281612071565b9450602086013561243281612071565b935060408601356001600160401b038082111561244e57600080fd5b61245a89838a01612321565b9450606088013591508082111561247057600080fd5b61247c89838a01612321565b9350608088013591508082111561249257600080fd5b5061249f88828901612390565b9150509295509295909350565b600080604083850312156124bf57600080fd5b8235915060208301356124d181612071565b809150509250929050565b600082601f8301126124ed57600080fd5b813560206124fd612342836122fe565b8083825260208201915060208460051b87010193508684111561251f57600080fd5b602086015b8481101561238557803561253781612071565b8352918301918301612524565b6000806040838503121561255757600080fd5b82356001600160401b038082111561256e57600080fd5b61257a868387016124dc565b9350602085013591508082111561259057600080fd5b5061259d85828601612321565b9150509250929050565b60008151808452602080850194506020840160005b838110156125d8578151875295820195908201906001016125bc565b509495945050505050565b602081526000611b5160208301846125a7565b6000806040838503121561260957600080fd5b823561261481612071565b915060208301356001600160401b0381111561262f57600080fd5b61259d85828601612390565b6020815260008251606060208401526126576080840182612122565b905060208401516040840152604084015160608401528091505092915050565b8015158114610bcf57600080fd5b6000806040838503121561269857600080fd5b82356126a381612071565b915060208301356124d181612677565b6000806000604084860312156126c857600080fd5b83356126d381612071565b925060208401356001600160401b038111156126ee57600080fd5b6126fa8682870161217e565b9497909650939450505050565b6000806020838503121561271a57600080fd5b82356001600160401b0381111561273057600080fd5b61273c858286016121c6565b90969095509350505050565b600060208083016020845280855180835260408601915060408160051b87010192506020870160005b8281101561279f57603f1988860301845261278d858351612122565b94509285019290850190600101612771565b5092979650505050505050565b6000602082840312156127be57600080fd5b81356001600160401b038111156127d457600080fd5b6127e0848285016124dc565b949350505050565b6000806000806000806080878903121561280157600080fd5b86356001600160401b038082111561281857600080fd5b6128248a838b0161217e565b90985096506020890135915061283982612071565b909450604088013593506060880135908082111561285657600080fd5b5061286389828a0161217e565b979a9699509497509295939492505050565b6000806040838503121561288857600080fd5b823561289381612071565b915060208301356124d181612071565b600080600080600060a086880312156128bb57600080fd5b85356128c681612071565b945060208601356128d681612071565b9350604086013592506060860135915060808601356001600160401b038111156128ff57600080fd5b61249f88828901612390565b600181811c9082168061291f57607f821691505b60208210810361293f57634e487b7160e01b600052602260045260246000fd5b50919050565b634e487b7160e01b600052601160045260246000fd5b8181038181111561071657610716612945565b8082018082111561071657610716612945565b634e487b7160e01b600052603260045260246000fd5b6000602082840312156129a957600080fd5b5051919050565b600080600080600060a086880312156129c857600080fd5b5050835160208501516040860151606087015160809097015192989197509594509092509050565b81835281816020850137506000828201602090810191909152601f909101601f19169091010190565b6020815260006127e06020830184866129f0565b6000808335601e19843603018112612a4457600080fd5b8301803591506001600160401b03821115612a5e57600080fd5b6020019150368190038213156121bf57600080fd5b6001600160a01b03841681526040602082018190526000906118df90830184866129f0565b600060208284031215612aaa57600080fd5b8151611b5181612677565b601f821115610aed576000816000526020600020601f850160051c81016020861015612ade5750805b601f850160051c820191505b81811015610b5157828155600101612aea565b81516001600160401b03811115612b1657612b166122b8565b612b2a81612b24845461290b565b84612ab5565b602080601f831160018114612b5f5760008415612b475750858301515b600019600386901b1c1916600185901b178555610b51565b600085815260208120601f198616915b82811015612b8e57888601518255948401946001909101908401612b6f565b5085821015612bac5787850151600019600388901b60f8161c191681555b5050505050600190811b01905550565b60008251612bce8184602087016120fe565b9190910192915050565b604081526000612beb60408301856125a7565b82810360208401526118df81856125a7565b6001600160a01b03868116825285166020820152604081018490526060810183905260a060808201819052600090612c3790830184612122565b979650505050505050565b600060208284031215612c5457600080fd5b8151611b51816120b2565b6001600160a01b0386811682528516602082015260a060408201819052600090612c8b908301866125a7565b8281036060840152612c9d81866125a7565b9050828103608084015261125a818561212256fe360894a13ba1a3210667c828492db98dca3e2076cc3735a920a3ca505d382bbc241ecf16d79d0f8dbfb92cbc07fe17840425976cf0667f022fe9877caa831b0888be536d5240c274a3b1d3a1be54482fd9caa294f08c62a7cde569f49a3c450002dd7bc7dec4dceedda775e58dd541e08a116c6c53815c0bd028192f7b626800a264697066735822122002593fe747832996645069ce5e5e64d55697128af2ddc2da3e8c9d998be2848e64736f6c63430008180033","linkReferences":{}},"methodIdentifiers":{"CONTRACT_BASE_ID()":"01144201","DEFAULT_ADMIN_ROLE()":"a217fddf","MANAGER_ROLE()":"ec87621c","UPGRADE_INTERFACE_VERSION()":"ad3cb1cc","_setManagers(address[])":"b4454784","balanceOf(address)":"70a08231","balanceOf(address,uint256)":"00fdd58e","balanceOfBatch(address[],uint256[])":"4e1273f4","channelFees()":"7d06d10a","createToken(string,address,uint256,bytes)":"ba4a9173","deposit(address,uint256)":"47e7ef24","ethBalances(address)":"3cfba0e3","getRoleAdmin(bytes32)":"248a9ca3","getTokenInfo(uint256)":"8c7a63ae","getTokens(uint256)":"d3c9cc26","grantRole(bytes32,address)":"2f2ff15d","hasRole(bytes32,address)":"91d14854","initialize(string,address,address[],bytes[])":"2bba0000","isAdmin(address)":"24d7806c","isApprovedForAll(address,address)":"e985e9c5","isManager(address)":"f3ae2415","mintPrice()":"6817c76c","multicall(bytes[])":"ac9650d8","nextTokenId()":"75794a3c","proxiableUUID()":"52d1902d","renounceRole(bytes32,address)":"36568abe","revokeManager(address)":"377e32e6","revokeRole(bytes32,address)":"d547741f","safeBatchTransferFrom(address,address,uint256[],uint256[],bytes)":"2eb2c2d6","safeTransferFrom(address,address,uint256,uint256,bytes)":"f242432a","setApprovalForAll(address,bool)":"a22cb465","setChannelFeeConfig(address,bytes)":"a9998424","setCreatorLogic(address,bytes)":"b11a4de8","supportsInterface(bytes4)":"01ffc9a7","upgradeToAndCall(address,bytes)":"4f1ef286","uri(uint256)":"0e89341c","withdraw(uint256)":"2e1a7d4d"},"id":47}