{"abi":[{"type":"constructor","inputs":[{"name":"_platformRecipient","type":"address","internalType":"address"}],"stateMutability":"nonpayable"},{"type":"function","name":"CONTRACT_BASE_ID","inputs":[],"outputs":[{"name":"","type":"uint256","internalType":"uint256"}],"stateMutability":"view"},{"type":"function","name":"UPGRADE_INTERFACE_VERSION","inputs":[],"outputs":[{"name":"","type":"string","internalType":"string"}],"stateMutability":"view"},{"type":"function","name":"balanceOf","inputs":[{"name":"account","type":"address","internalType":"address"}],"outputs":[{"name":"","type":"uint256","internalType":"uint256"}],"stateMutability":"view"},{"type":"function","name":"deposit","inputs":[{"name":"rx","type":"address","internalType":"address"},{"name":"amount","type":"uint256","internalType":"uint256"}],"outputs":[],"stateMutability":"payable"},{"type":"function","name":"ethBalances","inputs":[{"name":"","type":"address","internalType":"address"}],"outputs":[{"name":"","type":"uint256","internalType":"uint256"}],"stateMutability":"view"},{"type":"function","name":"getTokens","inputs":[{"name":"tokenId","type":"uint256","internalType":"uint256"}],"outputs":[{"name":"","type":"tuple","internalType":"struct IChannelTypesV1.TokenConfig","components":[{"name":"uri","type":"string","internalType":"string"},{"name":"maxSupply","type":"uint256","internalType":"uint256"},{"name":"totalMinted","type":"uint256","internalType":"uint256"},{"name":"author","type":"address","internalType":"address"},{"name":"createReferral","type":"address","internalType":"address"}]}],"stateMutability":"view"},{"type":"function","name":"initialize","inputs":[{"name":"uri","type":"string","internalType":"string"},{"name":"setupActions","type":"bytes[]","internalType":"bytes[]"}],"outputs":[],"stateMutability":"nonpayable"},{"type":"function","name":"multicall","inputs":[{"name":"data","type":"bytes[]","internalType":"bytes[]"}],"outputs":[{"name":"results","type":"bytes[]","internalType":"bytes[]"}],"stateMutability":"nonpayable"},{"type":"function","name":"nextTokenId","inputs":[],"outputs":[{"name":"","type":"uint256","internalType":"uint256"}],"stateMutability":"view"},{"type":"function","name":"proxiableUUID","inputs":[],"outputs":[{"name":"","type":"bytes32","internalType":"bytes32"}],"stateMutability":"view"},{"type":"function","name":"setChannelFeeAddress","inputs":[{"name":"channelTreasury","type":"address","internalType":"address"}],"outputs":[],"stateMutability":"nonpayable"},{"type":"function","name":"setCreateReferral","inputs":[{"name":"_referral","type":"address","internalType":"address"},{"name":"tokenId","type":"uint256","internalType":"uint256"}],"outputs":[],"stateMutability":"nonpayable"},{"type":"function","name":"setCreatorAddress","inputs":[{"name":"_creator","type":"address","internalType":"address"},{"name":"tokenId","type":"uint256","internalType":"uint256"}],"outputs":[],"stateMutability":"nonpayable"},{"type":"function","name":"upgradeToAndCall","inputs":[{"name":"newImplementation","type":"address","internalType":"address"},{"name":"data","type":"bytes","internalType":"bytes"}],"outputs":[],"stateMutability":"payable"},{"type":"function","name":"withdraw","inputs":[{"name":"_amount","type":"uint256","internalType":"uint256"}],"outputs":[],"stateMutability":"nonpayable"},{"type":"event","name":"Initialized","inputs":[{"name":"version","type":"uint64","indexed":false,"internalType":"uint64"}],"anonymous":false},{"type":"event","name":"Upgraded","inputs":[{"name":"implementation","type":"address","indexed":true,"internalType":"address"}],"anonymous":false},{"type":"error","name":"AddressEmptyCode","inputs":[{"name":"target","type":"address","internalType":"address"}]},{"type":"error","name":"ERC1967InvalidImplementation","inputs":[{"name":"implementation","type":"address","internalType":"address"}]},{"type":"error","name":"ERC1967NonPayable","inputs":[]},{"type":"error","name":"FailedInnerCall","inputs":[]},{"type":"error","name":"InvalidInitialization","inputs":[]},{"type":"error","name":"NotInitializing","inputs":[]},{"type":"error","name":"UUPSUnauthorizedCallContext","inputs":[]},{"type":"error","name":"UUPSUnsupportedProxiableUUID","inputs":[{"name":"slot","type":"bytes32","internalType":"bytes32"}]}],"bytecode":{"object":"0x60c06040523060a05234801561001457600080fd5b5060405161127b38038061127b83398101604081905261003391610144565b7ff0c57e16840df040f15088dc2f81fe391c3923bec73e23a9662efc9c229c6a00805468010000000000000000810460ff1615906001600160401b031660008115801561007d5750825b90506000826001600160401b031660011480156100995750303b155b9050811580156100a7575080155b156100c55760405163f92ee8a960e01b815260040160405180910390fd5b84546001600160401b031916600117855583156100f357845460ff60401b1916680100000000000000001785555b831561013957845460ff60401b19168555604051600181527fc7f505b2f371ae2175ee4913f4499e1f2633a7b5936321eed1cdaeb6115181d29060200160405180910390a15b505050505050610174565b60006020828403121561015657600080fd5b81516001600160a01b038116811461016d57600080fd5b9392505050565b60805160a0516110d76101a4600039600081816108100152818161083901526109740152600050506110d76000f3fe6080604052600436106100e85760003560e01c80635f26e9fb1161008a57806389416a081161005957806389416a08146102e3578063ac9650d814610303578063ad3cb1cc14610330578063d3c9cc261461036e57600080fd5b80635f26e9fb146101f657806370a082311461024057806375794a3c1461027657806388fe4a331461028c57600080fd5b80633cfba0e3116100c65780633cfba0e31461018e57806347e7ef24146101bb5780634f1ef286146101ce57806352d1902d146101e157600080fd5b806301144201146100ed578063203e5fba146101155780632e1a7d4d1461016e575b600080fd5b3480156100f957600080fd5b50610102600081565b6040519081526020015b60405180910390f35b34801561012157600080fd5b5061016c610130366004610bf9565b3360009081526004602090815260408083209383529290522060030180546001600160a01b0319166001600160a01b0392909216919091179055565b005b34801561017a57600080fd5b5061016c610189366004610c23565b61039b565b34801561019a57600080fd5b506101026101a9366004610c3c565b60026020526000908152604090205481565b61016c6101c9366004610bf9565b610468565b61016c6101dc366004610c6d565b610499565b3480156101ed57600080fd5b506101026104af565b34801561020257600080fd5b5061016c610211366004610c3c565b33600090815260036020526040902080546001600160a01b0319166001600160a01b0392909216919091179055565b34801561024c57600080fd5b5061010261025b366004610c3c565b6001600160a01b031660009081526002602052604090205490565b34801561028257600080fd5b5061010260015481565b34801561029857600080fd5b5061016c6102a7366004610bf9565b3360009081526004602090815260408083209383529290522060020180546001600160a01b0319166001600160a01b0392909216919091179055565b3480156102ef57600080fd5b5061016c6102fe366004610d7b565b6104cc565b34801561030f57600080fd5b5061032361031e366004610e12565b6105f0565b60405161010c9190610ea4565b34801561033c57600080fd5b50610361604051806040016040528060058152602001640352e302e360dc1b81525081565b60405161010c9190610f08565b34801561037a57600080fd5b5061038e610389366004610c23565b6106da565b60405161010c9190610f1b565b8060008190036103b75750336000908152600260205260409020545b336000908152600260205260409020548111156104125760405162461bcd60e51b8152602060048201526014602482015273496e73756666696369656e742062616c616e636560601b60448201526064015b60405180910390fd5b3360009081526002602052604081208054839290610431908490610f8f565b9091555050604051339082156108fc029083906000818181858888f19350505050158015610463573d6000803e3d6000fd5b505050565b6001600160a01b03821660009081526002602052604081208054839290610490908490610fa2565b90915550505050565b6104a1610805565b6104ab82826108ac565b5050565b60006104b9610969565b5060008051602061108283398151915290565b7ff0c57e16840df040f15088dc2f81fe391c3923bec73e23a9662efc9c229c6a008054600160401b810460ff16159067ffffffffffffffff166000811580156105125750825b905060008267ffffffffffffffff16600114801561052f5750303b155b90508115801561053d575080155b1561055b5760405163f92ee8a960e01b815260040160405180910390fd5b845467ffffffffffffffff19166001178555831561058557845460ff60401b1916600160401b1785555b61058d6109b2565b851561059f5761059d87876105f0565b505b83156105e557845460ff60401b19168555604051600181527fc7f505b2f371ae2175ee4913f4499e1f2633a7b5936321eed1cdaeb6115181d29060200160405180910390a15b505050505050505050565b60608167ffffffffffffffff81111561060b5761060b610c57565b60405190808252806020026020018201604052801561063e57816020015b60608152602001906001900390816106295790505b50905060005b828110156106d3576106ae3085858481811061066257610662610fb5565b90506020028101906106749190610fcb565b8080601f0160208091040260200160405190810160405280939291908181526020018383808284376000920191909152506109ba92505050565b8282815181106106c0576106c0610fb5565b6020908102919091010152600101610644565b5092915050565b61071e6040518060a0016040528060608152602001600081526020016000815260200160006001600160a01b0316815260200160006001600160a01b031681525090565b60008281526020819052604090819020815160a0810190925280548290829061074690611012565b80601f016020809104026020016040519081016040528092919081815260200182805461077290611012565b80156107bf5780601f10610794576101008083540402835291602001916107bf565b820191906000526020600020905b8154815290600101906020018083116107a257829003601f168201915b5050509183525050600182015460208201526002820154604082015260038201546001600160a01b03908116606083015260049092015490911660809091015292915050565b306001600160a01b037f000000000000000000000000000000000000000000000000000000000000000016148061088c57507f00000000000000000000000000000000000000000000000000000000000000006001600160a01b0316610880600080516020611082833981519152546001600160a01b031690565b6001600160a01b031614155b156108aa5760405163703e46dd60e11b815260040160405180910390fd5b565b816001600160a01b03166352d1902d6040518163ffffffff1660e01b8152600401602060405180830381865afa925050508015610906575060408051601f3d908101601f191682019092526109039181019061104c565b60015b61092e57604051634c9c8ce360e01b81526001600160a01b0383166004820152602401610409565b600080516020611082833981519152811461095f57604051632a87526960e21b815260048101829052602401610409565b6104638383610a32565b306001600160a01b037f000000000000000000000000000000000000000000000000000000000000000016146108aa5760405163703e46dd60e11b815260040160405180910390fd5b6108aa610a88565b6060600080846001600160a01b0316846040516109d79190611065565b600060405180830381855af49150503d8060008114610a12576040519150601f19603f3d011682016040523d82523d6000602084013e610a17565b606091505b5091509150610a27858383610ad1565b925050505b92915050565b610a3b82610b30565b6040516001600160a01b038316907fbc7cd75a20ee27fd9adebab32041f755214dbc6bffa90cc0225b39da2e5c2d3b90600090a2805115610a805761046382826109ba565b6104ab610b95565b7ff0c57e16840df040f15088dc2f81fe391c3923bec73e23a9662efc9c229c6a0054600160401b900460ff166108aa57604051631afcd79f60e31b815260040160405180910390fd5b606082610ae657610ae182610bb4565b610b29565b8151158015610afd57506001600160a01b0384163b155b15610b2657604051639996b31560e01b81526001600160a01b0385166004820152602401610409565b50805b9392505050565b806001600160a01b03163b600003610b6657604051634c9c8ce360e01b81526001600160a01b0382166004820152602401610409565b60008051602061108283398151915280546001600160a01b0319166001600160a01b0392909216919091179055565b34156108aa5760405163b398979f60e01b815260040160405180910390fd5b805115610bc45780518082602001fd5b604051630a12f52160e11b815260040160405180910390fd5b80356001600160a01b0381168114610bf457600080fd5b919050565b60008060408385031215610c0c57600080fd5b610c1583610bdd565b946020939093013593505050565b600060208284031215610c3557600080fd5b5035919050565b600060208284031215610c4e57600080fd5b610b2982610bdd565b634e487b7160e01b600052604160045260246000fd5b60008060408385031215610c8057600080fd5b610c8983610bdd565b9150602083013567ffffffffffffffff80821115610ca657600080fd5b818501915085601f830112610cba57600080fd5b813581811115610ccc57610ccc610c57565b604051601f8201601f19908116603f01168101908382118183101715610cf457610cf4610c57565b81604052828152886020848701011115610d0d57600080fd5b8260208601602083013760006020848301015280955050505050509250929050565b60008083601f840112610d4157600080fd5b50813567ffffffffffffffff811115610d5957600080fd5b6020830191508360208260051b8501011115610d7457600080fd5b9250929050565b60008060008060408587031215610d9157600080fd5b843567ffffffffffffffff80821115610da957600080fd5b818701915087601f830112610dbd57600080fd5b813581811115610dcc57600080fd5b886020828501011115610dde57600080fd5b602092830196509450908601359080821115610df957600080fd5b50610e0687828801610d2f565b95989497509550505050565b60008060208385031215610e2557600080fd5b823567ffffffffffffffff811115610e3c57600080fd5b610e4885828601610d2f565b90969095509350505050565b60005b83811015610e6f578181015183820152602001610e57565b50506000910152565b60008151808452610e90816020860160208601610e54565b601f01601f19169290920160200192915050565b600060208083016020845280855180835260408601915060408160051b87010192506020870160005b82811015610efb57603f19888603018452610ee9858351610e78565b94509285019290850190600101610ecd565b5092979650505050505050565b602081526000610b296020830184610e78565b602081526000825160a06020840152610f3760c0840182610e78565b90506020840151604084015260408401516060840152606084015160018060a01b0380821660808601528060808701511660a086015250508091505092915050565b634e487b7160e01b600052601160045260246000fd5b81810381811115610a2c57610a2c610f79565b80820180821115610a2c57610a2c610f79565b634e487b7160e01b600052603260045260246000fd5b6000808335601e19843603018112610fe257600080fd5b83018035915067ffffffffffffffff821115610ffd57600080fd5b602001915036819003821315610d7457600080fd5b600181811c9082168061102657607f821691505b60208210810361104657634e487b7160e01b600052602260045260246000fd5b50919050565b60006020828403121561105e57600080fd5b5051919050565b60008251611077818460208701610e54565b919091019291505056fe360894a13ba1a3210667c828492db98dca3e2076cc3735a920a3ca505d382bbca2646970667358221220e6bcc6ce2c9b9789b91001bc5e64b7cee5f223e044a614a32da401892df2340164736f6c63430008180033","linkReferences":{}},"methodIdentifiers":{"CONTRACT_BASE_ID()":"01144201","UPGRADE_INTERFACE_VERSION()":"ad3cb1cc","balanceOf(address)":"70a08231","deposit(address,uint256)":"47e7ef24","ethBalances(address)":"3cfba0e3","getTokens(uint256)":"d3c9cc26","initialize(string,bytes[])":"89416a08","multicall(bytes[])":"ac9650d8","nextTokenId()":"75794a3c","proxiableUUID()":"52d1902d","setChannelFeeAddress(address)":"5f26e9fb","setCreateReferral(address,uint256)":"203e5fba","setCreatorAddress(address,uint256)":"88fe4a33","upgradeToAndCall(address,bytes)":"4f1ef286","withdraw(uint256)":"2e1a7d4d"},"id":42}