{"abi":[{"type":"function","name":"channelMintFee","inputs":[],"outputs":[{"name":"","type":"uint256","internalType":"uint256"}],"stateMutability":"view"},{"type":"function","name":"constantChannelFees","inputs":[{"name":"","type":"uint256","internalType":"uint256"}],"outputs":[{"name":"addr","type":"address","internalType":"address"},{"name":"amount","type":"uint256","internalType":"uint256"}],"stateMutability":"view"},{"type":"function","name":"runtimeChannelFees","inputs":[{"name":"","type":"uint256","internalType":"uint256"}],"outputs":[{"name":"","type":"uint256","internalType":"uint256"}],"stateMutability":"view"},{"type":"function","name":"setChannelFees","inputs":[{"name":"_constantChannelFees","type":"bytes","internalType":"bytes"},{"name":"_runtimeChannelFees","type":"bytes","internalType":"bytes"}],"outputs":[],"stateMutability":"nonpayable"},{"type":"function","name":"updateFixedFees","inputs":[{"name":"fixedFees","type":"bytes","internalType":"bytes"}],"outputs":[],"stateMutability":"nonpayable"}],"bytecode":{"object":"0x608060405234801561001057600080fd5b50610631806100206000396000f3fe608060405234801561001057600080fd5b50600436106100575760003560e01c8063020afa341461005c5780635c23d036146100715780638c77cb451461008d57806394897fd4146100a0578063a8017641146100d2575b600080fd5b61006f61006a366004610389565b6100e3565b005b61007a60005481565b6040519081526020015b60405180910390f35b61007a61009b3660046103ed565b6100fd565b6100b36100ae3660046103ed565b61011e565b604080516001600160a01b039093168352602083019190915201610084565b61006f6100e0366004610406565b50565b600080556100f082610156565b6100f981610219565b5050565b6002818154811061010d57600080fd5b600091825260209091200154905081565b6001818154811061012e57600080fd5b6000918252602090912060029091020180546001909101546001600160a01b03909116915082565b60008180602001905181019061016c9190610467565b905060005b815181101561021457600182828151811061018e5761018e610538565b602090810291909101810151825460018082018555600094855293839020825160029092020180546001600160a01b0319166001600160a01b0390921691909117815591015191015581518290829081106101eb576101eb610538565b602002602001015160200151600080828254610207919061054e565b9091555050600101610171565b505050565b60008180602001905181019061022f9190610575565b905060005b815181101561021457600282828151811061025157610251610538565b60209081029190910181015182546001810184556000938452919092200155815182908290811061028457610284610538565b602002602001015160008082825461029c919061054e565b9091555050600101610234565b634e487b7160e01b600052604160045260246000fd5b6040805190810167ffffffffffffffff811182821017156102e2576102e26102a9565b60405290565b604051601f8201601f1916810167ffffffffffffffff81118282101715610311576103116102a9565b604052919050565b600082601f83011261032a57600080fd5b813567ffffffffffffffff811115610344576103446102a9565b610357601f8201601f19166020016102e8565b81815284602083860101111561036c57600080fd5b816020850160208301376000918101602001919091529392505050565b6000806040838503121561039c57600080fd5b823567ffffffffffffffff808211156103b457600080fd5b6103c086838701610319565b935060208501359150808211156103d657600080fd5b506103e385828601610319565b9150509250929050565b6000602082840312156103ff57600080fd5b5035919050565b60006020828403121561041857600080fd5b813567ffffffffffffffff81111561042f57600080fd5b61043b84828501610319565b949350505050565b600067ffffffffffffffff82111561045d5761045d6102a9565b5060051b60200190565b6000602080838503121561047a57600080fd5b825167ffffffffffffffff81111561049157600080fd5b8301601f810185136104a257600080fd5b80516104b56104b082610443565b6102e8565b81815260069190911b820183019083810190878311156104d457600080fd5b928401925b8284101561052d57604084890312156104f25760008081fd5b6104fa6102bf565b84516001600160a01b03811681146105125760008081fd5b815284860151868201528252604090930192908401906104d9565b979650505050505050565b634e487b7160e01b600052603260045260246000fd5b8082018082111561056f57634e487b7160e01b600052601160045260246000fd5b92915050565b6000602080838503121561058857600080fd5b825167ffffffffffffffff81111561059f57600080fd5b8301601f810185136105b057600080fd5b80516105be6104b082610443565b81815260059190911b820183019083810190878311156105dd57600080fd5b928401925b8284101561052d578351825292840192908401906105e256fea2646970667358221220759c53dbd64ebf028b20ddb6fcba15c73975d4ca92a6b8978295adbd987e089264736f6c63430008180033","linkReferences":{}},"methodIdentifiers":{"channelMintFee()":"5c23d036","constantChannelFees(uint256)":"94897fd4","runtimeChannelFees(uint256)":"8c77cb45","setChannelFees(bytes,bytes)":"020afa34","updateFixedFees(bytes)":"a8017641"},"id":31}